No.     Time           Source                Destination           Protocol Length Info
    375 1.444338000    host                  0.0                   USB      64     SET ADDRESS Request

Frame 375: 64 bytes on wire (512 bits), 64 bytes captured (512 bits) on interface 0
    Interface id: 0
    Encapsulation type: USB packets with Linux header and padding (115)
    Arrival Time: Feb 22, 2015 16:00:18.122757000 SAST
    [Time shift for this packet: 0.000000000 seconds]
    Epoch Time: 1424613618.122757000 seconds
    [Time delta from previous captured frame: 0.000041000 seconds]
    [Time delta from previous displayed frame: 0.000000000 seconds]
    [Time since reference or first frame: 1.444338000 seconds]
    Frame Number: 375
    Frame Length: 64 bytes (512 bits)
    Capture Length: 64 bytes (512 bits)
    [Frame is marked: False]
    [Frame is ignored: False]
    [Protocols in frame: usb]
USB URB
    URB id: 0xffff8803e5aa49c0
    URB type: URB_SUBMIT ('S')
    URB transfer type: URB_CONTROL (0x02)
    Endpoint: 0x00, Direction: OUT
        0... .... = Direction: OUT (0)
        .000 0000 = Endpoint value: 0
    Device: 0
    URB bus id: 2
    Device setup request: relevant (0)
    Data: present (0)
    URB sec: 1424613618
    URB usec: 122757
    URB status: Operation now in progress (-EINPROGRESS) (-115)
    URB length [bytes]: 0
    Data length [bytes]: 0
    [Response in: 376]
URB setup
    bmRequestType: 0x00
        0... .... = Direction: Host-to-device
        .00. .... = Type: Standard (0x00)
        ...0 0000 = Recipient: Device (0x00)
    bRequest: SET ADDRESS (5)
    Device: 39
    wIndex: 0
    wLength: 0

0000  c0 49 aa e5 03 88 ff ff 53 02 00 00 02 00 00 00   .I......S.......
0010  f2 e0 e9 54 00 00 00 00 85 df 01 00 8d ff ff ff   ...T............
0020  00 00 00 00 00 00 00 00 00 05 27 00 00 00 00 00   ..........'.....
0030  00 00 00 00 00 00 00 00 00 00 00 00 00 00 00 00   ................

No.     Time           Source                Destination           Protocol Length Info
    377 1.464271000    host                  39.0                  USB      64     GET DESCRIPTOR Request DEVICE

Frame 377: 64 bytes on wire (512 bits), 64 bytes captured (512 bits) on interface 0
    Interface id: 0
    Encapsulation type: USB packets with Linux header and padding (115)
    Arrival Time: Feb 22, 2015 16:00:18.142690000 SAST
    [Time shift for this packet: 0.000000000 seconds]
    Epoch Time: 1424613618.142690000 seconds
    [Time delta from previous captured frame: 0.019650000 seconds]
    [Time delta from previous displayed frame: 0.019933000 seconds]
    [Time since reference or first frame: 1.464271000 seconds]
    Frame Number: 377
    Frame Length: 64 bytes (512 bits)
    Capture Length: 64 bytes (512 bits)
    [Frame is marked: False]
    [Frame is ignored: False]
    [Protocols in frame: usb]
USB URB
    URB id: 0xffff880220b5a600
    URB type: URB_SUBMIT ('S')
    URB transfer type: URB_CONTROL (0x02)
    Endpoint: 0x80, Direction: IN
        1... .... = Direction: IN (1)
        .000 0000 = Endpoint value: 0
    Device: 39
    URB bus id: 2
    Device setup request: relevant (0)
    Data: not present ('<')
    URB sec: 1424613618
    URB usec: 142690
    URB status: Operation now in progress (-EINPROGRESS) (-115)
    URB length [bytes]: 18
    Data length [bytes]: 0
    [Response in: 378]
URB setup
    bmRequestType: 0x80
        1... .... = Direction: Device-to-host
        .00. .... = Type: Standard (0x00)
        ...0 0000 = Recipient: Device (0x00)
    bRequest: GET DESCRIPTOR (6)
    Descriptor Index: 0x00
    bDescriptorType: DEVICE (1)
    Language Id: no language specified (0x0000)
    wLength: 18

0000  00 a6 b5 20 02 88 ff ff 53 02 80 27 02 00 00 3c   ... ....S..'...<
0010  f2 e0 e9 54 00 00 00 00 62 2d 02 00 8d ff ff ff   ...T....b-......
0020  12 00 00 00 00 00 00 00 80 06 00 01 00 00 12 00   ................
0030  00 00 00 00 00 00 00 00 00 02 00 00 00 00 00 00   ................

No.     Time           Source                Destination           Protocol Length Info
    378 1.464452000    39.0                  host                  USB      82     GET DESCRIPTOR Response DEVICE

Frame 378: 82 bytes on wire (656 bits), 82 bytes captured (656 bits) on interface 0
    Interface id: 0
    Encapsulation type: USB packets with Linux header and padding (115)
    Arrival Time: Feb 22, 2015 16:00:18.142871000 SAST
    [Time shift for this packet: 0.000000000 seconds]
    Epoch Time: 1424613618.142871000 seconds
    [Time delta from previous captured frame: 0.000181000 seconds]
    [Time delta from previous displayed frame: 0.000181000 seconds]
    [Time since reference or first frame: 1.464452000 seconds]
    Frame Number: 378
    Frame Length: 82 bytes (656 bits)
    Capture Length: 82 bytes (656 bits)
    [Frame is marked: False]
    [Frame is ignored: False]
    [Protocols in frame: usb]
USB URB
    URB id: 0xffff880220b5a600
    URB type: URB_COMPLETE ('C')
    URB transfer type: URB_CONTROL (0x02)
    Endpoint: 0x80, Direction: IN
        1... .... = Direction: IN (1)
        .000 0000 = Endpoint value: 0
    Device: 39
    URB bus id: 2
    Device setup request: not relevant ('-')
    Data: present (0)
    URB sec: 1424613618
    URB usec: 142871
    URB status: Success (0)
    URB length [bytes]: 18
    Data length [bytes]: 18
    [Request in: 377]
    [Time from request: 0.000181000 seconds]
    [bInterfaceClass: Unknown (0xffff)]
DEVICE DESCRIPTOR
    bLength: 18
    bDescriptorType: DEVICE (1)
    bcdUSB: 0x0110
    bDeviceClass: Device (0x00)
    bDeviceSubClass: 0
    bDeviceProtocol: 0 (Use class code info from Interface Descriptors)
    bMaxPacketSize0: 64
    idVendor: STMicroelectronics (0x0483)
    idProduct: STM32F407 (0x5740)
    bcdDevice: 0x0200
    iManufacturer: 1
    iProduct: 2
    iSerialNumber: 3
    bNumConfigurations: 1

0000  00 a6 b5 20 02 88 ff ff 43 02 80 27 02 00 2d 00   ... ....C..'..-.
0010  f2 e0 e9 54 00 00 00 00 17 2e 02 00 00 00 00 00   ...T............
0020  12 00 00 00 12 00 00 00 00 00 00 00 00 00 00 00   ................
0030  00 00 00 00 00 00 00 00 00 02 00 00 00 00 00 00   ................
0040  12 01 10 01 00 00 00 40 83 04 40 57 00 02 01 02   .......@..@W....
0050  03 01                                             ..

No.     Time           Source                Destination           Protocol Length Info
    379 1.464496000    host                  39.0                  USB      64     GET DESCRIPTOR Request CONFIGURATION

Frame 379: 64 bytes on wire (512 bits), 64 bytes captured (512 bits) on interface 0
    Interface id: 0
    Encapsulation type: USB packets with Linux header and padding (115)
    Arrival Time: Feb 22, 2015 16:00:18.142915000 SAST
    [Time shift for this packet: 0.000000000 seconds]
    Epoch Time: 1424613618.142915000 seconds
    [Time delta from previous captured frame: 0.000044000 seconds]
    [Time delta from previous displayed frame: 0.000044000 seconds]
    [Time since reference or first frame: 1.464496000 seconds]
    Frame Number: 379
    Frame Length: 64 bytes (512 bits)
    Capture Length: 64 bytes (512 bits)
    [Frame is marked: False]
    [Frame is ignored: False]
    [Protocols in frame: usb]
USB URB
    URB id: 0xffff880220b5a600
    URB type: URB_SUBMIT ('S')
    URB transfer type: URB_CONTROL (0x02)
    Endpoint: 0x80, Direction: IN
        1... .... = Direction: IN (1)
        .000 0000 = Endpoint value: 0
    Device: 39
    URB bus id: 2
    Device setup request: relevant (0)
    Data: not present ('<')
    URB sec: 1424613618
    URB usec: 142915
    URB status: Operation now in progress (-EINPROGRESS) (-115)
    URB length [bytes]: 9
    Data length [bytes]: 0
    [Response in: 380]
URB setup
    bmRequestType: 0x80
        1... .... = Direction: Device-to-host
        .00. .... = Type: Standard (0x00)
        ...0 0000 = Recipient: Device (0x00)
    bRequest: GET DESCRIPTOR (6)
    Descriptor Index: 0x00
    bDescriptorType: CONFIGURATION (2)
    Language Id: no language specified (0x0000)
    wLength: 9

0000  00 a6 b5 20 02 88 ff ff 53 02 80 27 02 00 00 3c   ... ....S..'...<
0010  f2 e0 e9 54 00 00 00 00 43 2e 02 00 8d ff ff ff   ...T....C.......
0020  09 00 00 00 00 00 00 00 80 06 00 02 00 00 09 00   ................
0030  00 00 00 00 00 00 00 00 00 02 00 00 00 00 00 00   ................

No.     Time           Source                Destination           Protocol Length Info
    380 1.464729000    39.0                  host                  USB      73     GET DESCRIPTOR Response CONFIGURATION

Frame 380: 73 bytes on wire (584 bits), 73 bytes captured (584 bits) on interface 0
    Interface id: 0
    Encapsulation type: USB packets with Linux header and padding (115)
    Arrival Time: Feb 22, 2015 16:00:18.143148000 SAST
    [Time shift for this packet: 0.000000000 seconds]
    Epoch Time: 1424613618.143148000 seconds
    [Time delta from previous captured frame: 0.000233000 seconds]
    [Time delta from previous displayed frame: 0.000233000 seconds]
    [Time since reference or first frame: 1.464729000 seconds]
    Frame Number: 380
    Frame Length: 73 bytes (584 bits)
    Capture Length: 73 bytes (584 bits)
    [Frame is marked: False]
    [Frame is ignored: False]
    [Protocols in frame: usb]
USB URB
    URB id: 0xffff880220b5a600
    URB type: URB_COMPLETE ('C')
    URB transfer type: URB_CONTROL (0x02)
    Endpoint: 0x80, Direction: IN
        1... .... = Direction: IN (1)
        .000 0000 = Endpoint value: 0
    Device: 39
    URB bus id: 2
    Device setup request: not relevant ('-')
    Data: present (0)
    URB sec: 1424613618
    URB usec: 143148
    URB status: Success (0)
    URB length [bytes]: 9
    Data length [bytes]: 9
    [Request in: 379]
    [Time from request: 0.000233000 seconds]
    [bInterfaceClass: Unknown (0xffff)]
CONFIGURATION DESCRIPTOR
    bLength: 9
    bDescriptorType: CONFIGURATION (2)
    wTotalLength: 67
    bNumInterfaces: 2
    bConfigurationValue: 1
    iConfiguration: 0
    Configuration bmAttributes: 0xc0  SELF-POWERED  NO REMOTE-WAKEUP
        1... .... = Must be 1: Must be 1 for USB 1.1 and higher
        .1.. .... = Self-Powered: This device is SELF-POWERED
        ..0. .... = Remote Wakeup: This device does NOT support remote wakeup
    bMaxPower: 50  (100mA)

0000  00 a6 b5 20 02 88 ff ff 43 02 80 27 02 00 2d 00   ... ....C..'..-.
0010  f2 e0 e9 54 00 00 00 00 2c 2f 02 00 00 00 00 00   ...T....,/......
0020  09 00 00 00 09 00 00 00 00 00 00 00 00 00 00 00   ................
0030  00 00 00 00 00 00 00 00 00 02 00 00 00 00 00 00   ................
0040  09 02 43 00 02 01 00 c0 32                        ..C.....2

No.     Time           Source                Destination           Protocol Length Info
    381 1.464771000    host                  39.0                  USB      64     GET DESCRIPTOR Request CONFIGURATION

Frame 381: 64 bytes on wire (512 bits), 64 bytes captured (512 bits) on interface 0
    Interface id: 0
    Encapsulation type: USB packets with Linux header and padding (115)
    Arrival Time: Feb 22, 2015 16:00:18.143190000 SAST
    [Time shift for this packet: 0.000000000 seconds]
    Epoch Time: 1424613618.143190000 seconds
    [Time delta from previous captured frame: 0.000042000 seconds]
    [Time delta from previous displayed frame: 0.000042000 seconds]
    [Time since reference or first frame: 1.464771000 seconds]
    Frame Number: 381
    Frame Length: 64 bytes (512 bits)
    Capture Length: 64 bytes (512 bits)
    [Frame is marked: False]
    [Frame is ignored: False]
    [Protocols in frame: usb]
USB URB
    URB id: 0xffff880220b5a600
    URB type: URB_SUBMIT ('S')
    URB transfer type: URB_CONTROL (0x02)
    Endpoint: 0x80, Direction: IN
        1... .... = Direction: IN (1)
        .000 0000 = Endpoint value: 0
    Device: 39
    URB bus id: 2
    Device setup request: relevant (0)
    Data: not present ('<')
    URB sec: 1424613618
    URB usec: 143190
    URB status: Operation now in progress (-EINPROGRESS) (-115)
    URB length [bytes]: 67
    Data length [bytes]: 0
    [Response in: 382]
URB setup
    bmRequestType: 0x80
        1... .... = Direction: Device-to-host
        .00. .... = Type: Standard (0x00)
        ...0 0000 = Recipient: Device (0x00)
    bRequest: GET DESCRIPTOR (6)
    Descriptor Index: 0x00
    bDescriptorType: CONFIGURATION (2)
    Language Id: no language specified (0x0000)
    wLength: 67

0000  00 a6 b5 20 02 88 ff ff 53 02 80 27 02 00 00 3c   ... ....S..'...<
0010  f2 e0 e9 54 00 00 00 00 56 2f 02 00 8d ff ff ff   ...T....V/......
0020  43 00 00 00 00 00 00 00 80 06 00 02 00 00 43 00   C.............C.
0030  00 00 00 00 00 00 00 00 00 02 00 00 00 00 00 00   ................

No.     Time           Source                Destination           Protocol Length Info
    382 1.465120000    39.0                  host                  USB      131    GET DESCRIPTOR Response CONFIGURATION

Frame 382: 131 bytes on wire (1048 bits), 131 bytes captured (1048 bits) on interface 0
    Interface id: 0
    Encapsulation type: USB packets with Linux header and padding (115)
    Arrival Time: Feb 22, 2015 16:00:18.143539000 SAST
    [Time shift for this packet: 0.000000000 seconds]
    Epoch Time: 1424613618.143539000 seconds
    [Time delta from previous captured frame: 0.000349000 seconds]
    [Time delta from previous displayed frame: 0.000349000 seconds]
    [Time since reference or first frame: 1.465120000 seconds]
    Frame Number: 382
    Frame Length: 131 bytes (1048 bits)
    Capture Length: 131 bytes (1048 bits)
    [Frame is marked: False]
    [Frame is ignored: False]
    [Protocols in frame: usb]
USB URB
    URB id: 0xffff880220b5a600
    URB type: URB_COMPLETE ('C')
    URB transfer type: URB_CONTROL (0x02)
    Endpoint: 0x80, Direction: IN
        1... .... = Direction: IN (1)
        .000 0000 = Endpoint value: 0
    Device: 39
    URB bus id: 2
    Device setup request: not relevant ('-')
    Data: present (0)
    URB sec: 1424613618
    URB usec: 143539
    URB status: Success (0)
    URB length [bytes]: 67
    Data length [bytes]: 67
    [Request in: 381]
    [Time from request: 0.000349000 seconds]
    [bInterfaceClass: Unknown (0xffff)]
CONFIGURATION DESCRIPTOR
    bLength: 9
    bDescriptorType: CONFIGURATION (2)
    wTotalLength: 67
    bNumInterfaces: 2
    bConfigurationValue: 1
    iConfiguration: 0
    Configuration bmAttributes: 0xc0  SELF-POWERED  NO REMOTE-WAKEUP
        1... .... = Must be 1: Must be 1 for USB 1.1 and higher
        .1.. .... = Self-Powered: This device is SELF-POWERED
        ..0. .... = Remote Wakeup: This device does NOT support remote wakeup
    bMaxPower: 50  (100mA)
INTERFACE DESCRIPTOR (0.0): class Communications and CDC Control
    bLength: 9
    bDescriptorType: INTERFACE (4)
    bInterfaceNumber: 0
    bAlternateSetting: 0
    bNumEndpoints: 1
    bInterfaceClass: Communications and CDC Control (0x02)
    bInterfaceSubClass: 0x02
    bInterfaceProtocol: 0x01
    iInterface: 0
UNKNOWN DESCRIPTOR
    bLength: 5
    bDescriptorType: Unknown (36)
UNKNOWN DESCRIPTOR
    bLength: 5
    bDescriptorType: Unknown (36)
UNKNOWN DESCRIPTOR
    bLength: 4
    bDescriptorType: Unknown (36)
UNKNOWN DESCRIPTOR
    bLength: 5
    bDescriptorType: Unknown (36)
ENDPOINT DESCRIPTOR
    bLength: 7
    bDescriptorType: ENDPOINT (5)
    bEndpointAddress: 0x82  IN  Endpoint:2
        1... .... = Direction: IN Endpoint
        .... 0010 = Endpoint Number: 0x02
    bmAttributes: 0x03
        .... ..11 = Transfertype: Interrupt-Transfer (0x03)
        .... 00.. = Synchronisationtype: No Sync (0x00)
        ..00 .... = Behaviourtype: Data-Endpoint (0x00)
    wMaxPacketSize: 8
        ...0 0... .... .... = Transactions per microframe: 1 (0)
        .... ..00 0000 1000 = Maximum Packet Size: 8
    bInterval: 16
INTERFACE DESCRIPTOR (1.0): class CDC-Data
    bLength: 9
    bDescriptorType: INTERFACE (4)
    bInterfaceNumber: 1
    bAlternateSetting: 0
    bNumEndpoints: 2
    bInterfaceClass: CDC-Data (0x0a)
    bInterfaceSubClass: 0x00
    bInterfaceProtocol: 0x00
    iInterface: 0
ENDPOINT DESCRIPTOR
    bLength: 7
    bDescriptorType: ENDPOINT (5)
    bEndpointAddress: 0x01  OUT  Endpoint:1
        0... .... = Direction: OUT Endpoint
        .... 0001 = Endpoint Number: 0x01
    bmAttributes: 0x02
        .... ..10 = Transfertype: Bulk-Transfer (0x02)
        .... 00.. = Synchronisationtype: No Sync (0x00)
        ..00 .... = Behaviourtype: Data-Endpoint (0x00)
    wMaxPacketSize: 64
        .... ..00 0100 0000 = Maximum Packet Size: 64
    bInterval: 0
ENDPOINT DESCRIPTOR
    bLength: 7
    bDescriptorType: ENDPOINT (5)
    bEndpointAddress: 0x81  IN  Endpoint:1
        1... .... = Direction: IN Endpoint
        .... 0001 = Endpoint Number: 0x01
    bmAttributes: 0x02
        .... ..10 = Transfertype: Bulk-Transfer (0x02)
        .... 00.. = Synchronisationtype: No Sync (0x00)
        ..00 .... = Behaviourtype: Data-Endpoint (0x00)
    wMaxPacketSize: 64
        .... ..00 0100 0000 = Maximum Packet Size: 64
    bInterval: 0

0000  00 a6 b5 20 02 88 ff ff 43 02 80 27 02 00 2d 00   ... ....C..'..-.
0010  f2 e0 e9 54 00 00 00 00 b3 30 02 00 00 00 00 00   ...T.....0......
0020  43 00 00 00 43 00 00 00 00 00 00 00 00 00 00 00   C...C...........
0030  00 00 00 00 00 00 00 00 00 02 00 00 00 00 00 00   ................
0040  09 02 43 00 02 01 00 c0 32 09 04 00 00 01 02 02   ..C.....2.......
0050  01 00 05 24 00 10 01 05 24 01 00 01 04 24 02 02   ...$....$....$..
0060  05 24 06 00 01 07 05 82 03 08 00 10 09 04 01 00   .$..............
0070  02 0a 00 00 00 07 05 01 02 40 00 00 07 05 81 02   .........@......
0080  40 00 00                                          @..

No.     Time           Source                Destination           Protocol Length Info
    383 1.465166000    host                  39.0                  USB      64     GET DESCRIPTOR Request STRING

Frame 383: 64 bytes on wire (512 bits), 64 bytes captured (512 bits) on interface 0
    Interface id: 0
    Encapsulation type: USB packets with Linux header and padding (115)
    Arrival Time: Feb 22, 2015 16:00:18.143585000 SAST
    [Time shift for this packet: 0.000000000 seconds]
    Epoch Time: 1424613618.143585000 seconds
    [Time delta from previous captured frame: 0.000046000 seconds]
    [Time delta from previous displayed frame: 0.000046000 seconds]
    [Time since reference or first frame: 1.465166000 seconds]
    Frame Number: 383
    Frame Length: 64 bytes (512 bits)
    Capture Length: 64 bytes (512 bits)
    [Frame is marked: False]
    [Frame is ignored: False]
    [Protocols in frame: usb]
USB URB
    URB id: 0xffff880220b5a600
    URB type: URB_SUBMIT ('S')
    URB transfer type: URB_CONTROL (0x02)
    Endpoint: 0x80, Direction: IN
        1... .... = Direction: IN (1)
        .000 0000 = Endpoint value: 0
    Device: 39
    URB bus id: 2
    Device setup request: relevant (0)
    Data: not present ('<')
    URB sec: 1424613618
    URB usec: 143585
    URB status: Operation now in progress (-EINPROGRESS) (-115)
    URB length [bytes]: 255
    Data length [bytes]: 0
    [Response in: 384]
URB setup
    bmRequestType: 0x80
        1... .... = Direction: Device-to-host
        .00. .... = Type: Standard (0x00)
        ...0 0000 = Recipient: Device (0x00)
    bRequest: GET DESCRIPTOR (6)
    Descriptor Index: 0x00
    bDescriptorType: STRING (3)
    Language Id: no language specified (0x0000)
    wLength: 255

0000  00 a6 b5 20 02 88 ff ff 53 02 80 27 02 00 00 3c   ... ....S..'...<
0010  f2 e0 e9 54 00 00 00 00 e1 30 02 00 8d ff ff ff   ...T.....0......
0020  ff 00 00 00 00 00 00 00 80 06 00 03 00 00 ff 00   ................
0030  00 00 00 00 00 00 00 00 00 02 00 00 00 00 00 00   ................

No.     Time           Source                Destination           Protocol Length Info
    384 1.465331000    39.0                  host                  USB      68     GET DESCRIPTOR Response STRING

Frame 384: 68 bytes on wire (544 bits), 68 bytes captured (544 bits) on interface 0
    Interface id: 0
    Encapsulation type: USB packets with Linux header and padding (115)
    Arrival Time: Feb 22, 2015 16:00:18.143750000 SAST
    [Time shift for this packet: 0.000000000 seconds]
    Epoch Time: 1424613618.143750000 seconds
    [Time delta from previous captured frame: 0.000165000 seconds]
    [Time delta from previous displayed frame: 0.000165000 seconds]
    [Time since reference or first frame: 1.465331000 seconds]
    Frame Number: 384
    Frame Length: 68 bytes (544 bits)
    Capture Length: 68 bytes (544 bits)
    [Frame is marked: False]
    [Frame is ignored: False]
    [Protocols in frame: usb]
USB URB
    URB id: 0xffff880220b5a600
    URB type: URB_COMPLETE ('C')
    URB transfer type: URB_CONTROL (0x02)
    Endpoint: 0x80, Direction: IN
        1... .... = Direction: IN (1)
        .000 0000 = Endpoint value: 0
    Device: 39
    URB bus id: 2
    Device setup request: not relevant ('-')
    Data: present (0)
    URB sec: 1424613618
    URB usec: 143750
    URB status: Success (0)
    URB length [bytes]: 4
    Data length [bytes]: 4
    [Request in: 383]
    [Time from request: 0.000165000 seconds]
    [bInterfaceClass: Unknown (0xffff)]
STRING DESCRIPTOR
    bLength: 4
    bDescriptorType: STRING (3)
    wLANGID: English (United States) (0x0409)

0000  00 a6 b5 20 02 88 ff ff 43 02 80 27 02 00 2d 00   ... ....C..'..-.
0010  f2 e0 e9 54 00 00 00 00 86 31 02 00 00 00 00 00   ...T.....1......
0020  04 00 00 00 04 00 00 00 00 00 00 00 00 00 00 00   ................
0030  00 00 00 00 00 00 00 00 00 02 00 00 00 00 00 00   ................
0040  04 03 09 04                                       ....

No.     Time           Source                Destination           Protocol Length Info
    385 1.465373000    host                  39.0                  USB      64     GET DESCRIPTOR Request STRING

Frame 385: 64 bytes on wire (512 bits), 64 bytes captured (512 bits) on interface 0
    Interface id: 0
    Encapsulation type: USB packets with Linux header and padding (115)
    Arrival Time: Feb 22, 2015 16:00:18.143792000 SAST
    [Time shift for this packet: 0.000000000 seconds]
    Epoch Time: 1424613618.143792000 seconds
    [Time delta from previous captured frame: 0.000042000 seconds]
    [Time delta from previous displayed frame: 0.000042000 seconds]
    [Time since reference or first frame: 1.465373000 seconds]
    Frame Number: 385
    Frame Length: 64 bytes (512 bits)
    Capture Length: 64 bytes (512 bits)
    [Frame is marked: False]
    [Frame is ignored: False]
    [Protocols in frame: usb]
USB URB
    URB id: 0xffff880220b5a600
    URB type: URB_SUBMIT ('S')
    URB transfer type: URB_CONTROL (0x02)
    Endpoint: 0x80, Direction: IN
        1... .... = Direction: IN (1)
        .000 0000 = Endpoint value: 0
    Device: 39
    URB bus id: 2
    Device setup request: relevant (0)
    Data: not present ('<')
    URB sec: 1424613618
    URB usec: 143792
    URB status: Operation now in progress (-EINPROGRESS) (-115)
    URB length [bytes]: 255
    Data length [bytes]: 0
    [Response in: 386]
URB setup
    bmRequestType: 0x80
        1... .... = Direction: Device-to-host
        .00. .... = Type: Standard (0x00)
        ...0 0000 = Recipient: Device (0x00)
    bRequest: GET DESCRIPTOR (6)
    Descriptor Index: 0x02
    bDescriptorType: STRING (3)
    Language Id: English (United States) (0x0409)
    wLength: 255

0000  00 a6 b5 20 02 88 ff ff 53 02 80 27 02 00 00 3c   ... ....S..'...<
0010  f2 e0 e9 54 00 00 00 00 b0 31 02 00 8d ff ff ff   ...T.....1......
0020  ff 00 00 00 00 00 00 00 80 06 02 03 09 04 ff 00   ................
0030  00 00 00 00 00 00 00 00 00 02 00 00 00 00 00 00   ................

No.     Time           Source                Destination           Protocol Length Info
    386 1.465750000    39.0                  host                  USB      130    GET DESCRIPTOR Response STRING

Frame 386: 130 bytes on wire (1040 bits), 130 bytes captured (1040 bits) on interface 0
    Interface id: 0
    Encapsulation type: USB packets with Linux header and padding (115)
    Arrival Time: Feb 22, 2015 16:00:18.144169000 SAST
    [Time shift for this packet: 0.000000000 seconds]
    Epoch Time: 1424613618.144169000 seconds
    [Time delta from previous captured frame: 0.000377000 seconds]
    [Time delta from previous displayed frame: 0.000377000 seconds]
    [Time since reference or first frame: 1.465750000 seconds]
    Frame Number: 386
    Frame Length: 130 bytes (1040 bits)
    Capture Length: 130 bytes (1040 bits)
    [Frame is marked: False]
    [Frame is ignored: False]
    [Protocols in frame: usb]
USB URB
    URB id: 0xffff880220b5a600
    URB type: URB_COMPLETE ('C')
    URB transfer type: URB_CONTROL (0x02)
    Endpoint: 0x80, Direction: IN
        1... .... = Direction: IN (1)
        .000 0000 = Endpoint value: 0
    Device: 39
    URB bus id: 2
    Device setup request: not relevant ('-')
    Data: present (0)
    URB sec: 1424613618
    URB usec: 144169
    URB status: Success (0)
    URB length [bytes]: 66
    Data length [bytes]: 66
    [Request in: 385]
    [Time from request: 0.000377000 seconds]
    [bInterfaceClass: Unknown (0xffff)]
STRING DESCRIPTOR
    bLength: 66
    bDescriptorType: STRING (3)
    bString: STM32 Virtual ComPort in FS Mode

0000  00 a6 b5 20 02 88 ff ff 43 02 80 27 02 00 2d 00   ... ....C..'..-.
0010  f2 e0 e9 54 00 00 00 00 29 33 02 00 00 00 00 00   ...T....)3......
0020  42 00 00 00 42 00 00 00 00 00 00 00 00 00 00 00   B...B...........
0030  00 00 00 00 00 00 00 00 00 02 00 00 00 00 00 00   ................
0040  42 03 53 00 54 00 4d 00 33 00 32 00 20 00 56 00   B.S.T.M.3.2. .V.
0050  69 00 72 00 74 00 75 00 61 00 6c 00 20 00 43 00   i.r.t.u.a.l. .C.
0060  6f 00 6d 00 50 00 6f 00 72 00 74 00 20 00 69 00   o.m.P.o.r.t. .i.
0070  6e 00 20 00 46 00 53 00 20 00 4d 00 6f 00 64 00   n. .F.S. .M.o.d.
0080  65 00                                             e.

No.     Time           Source                Destination           Protocol Length Info
    387 1.465793000    host                  39.0                  USB      64     GET DESCRIPTOR Request STRING

Frame 387: 64 bytes on wire (512 bits), 64 bytes captured (512 bits) on interface 0
    Interface id: 0
    Encapsulation type: USB packets with Linux header and padding (115)
    Arrival Time: Feb 22, 2015 16:00:18.144212000 SAST
    [Time shift for this packet: 0.000000000 seconds]
    Epoch Time: 1424613618.144212000 seconds
    [Time delta from previous captured frame: 0.000043000 seconds]
    [Time delta from previous displayed frame: 0.000043000 seconds]
    [Time since reference or first frame: 1.465793000 seconds]
    Frame Number: 387
    Frame Length: 64 bytes (512 bits)
    Capture Length: 64 bytes (512 bits)
    [Frame is marked: False]
    [Frame is ignored: False]
    [Protocols in frame: usb]
USB URB
    URB id: 0xffff880220b5a600
    URB type: URB_SUBMIT ('S')
    URB transfer type: URB_CONTROL (0x02)
    Endpoint: 0x80, Direction: IN
        1... .... = Direction: IN (1)
        .000 0000 = Endpoint value: 0
    Device: 39
    URB bus id: 2
    Device setup request: relevant (0)
    Data: not present ('<')
    URB sec: 1424613618
    URB usec: 144212
    URB status: Operation now in progress (-EINPROGRESS) (-115)
    URB length [bytes]: 255
    Data length [bytes]: 0
    [Response in: 388]
URB setup
    bmRequestType: 0x80
        1... .... = Direction: Device-to-host
        .00. .... = Type: Standard (0x00)
        ...0 0000 = Recipient: Device (0x00)
    bRequest: GET DESCRIPTOR (6)
    Descriptor Index: 0x01
    bDescriptorType: STRING (3)
    Language Id: English (United States) (0x0409)
    wLength: 255

0000  00 a6 b5 20 02 88 ff ff 53 02 80 27 02 00 00 3c   ... ....S..'...<
0010  f2 e0 e9 54 00 00 00 00 54 33 02 00 8d ff ff ff   ...T....T3......
0020  ff 00 00 00 00 00 00 00 80 06 01 03 09 04 ff 00   ................
0030  00 00 00 00 00 00 00 00 00 02 00 00 00 00 00 00   ................

No.     Time           Source                Destination           Protocol Length Info
    388 1.466089000    39.0                  host                  USB      102    GET DESCRIPTOR Response STRING

Frame 388: 102 bytes on wire (816 bits), 102 bytes captured (816 bits) on interface 0
    Interface id: 0
    Encapsulation type: USB packets with Linux header and padding (115)
    Arrival Time: Feb 22, 2015 16:00:18.144508000 SAST
    [Time shift for this packet: 0.000000000 seconds]
    Epoch Time: 1424613618.144508000 seconds
    [Time delta from previous captured frame: 0.000296000 seconds]
    [Time delta from previous displayed frame: 0.000296000 seconds]
    [Time since reference or first frame: 1.466089000 seconds]
    Frame Number: 388
    Frame Length: 102 bytes (816 bits)
    Capture Length: 102 bytes (816 bits)
    [Frame is marked: False]
    [Frame is ignored: False]
    [Protocols in frame: usb]
USB URB
    URB id: 0xffff880220b5a600
    URB type: URB_COMPLETE ('C')
    URB transfer type: URB_CONTROL (0x02)
    Endpoint: 0x80, Direction: IN
        1... .... = Direction: IN (1)
        .000 0000 = Endpoint value: 0
    Device: 39
    URB bus id: 2
    Device setup request: not relevant ('-')
    Data: present (0)
    URB sec: 1424613618
    URB usec: 144508
    URB status: Success (0)
    URB length [bytes]: 38
    Data length [bytes]: 38
    [Request in: 387]
    [Time from request: 0.000296000 seconds]
    [bInterfaceClass: Unknown (0xffff)]
STRING DESCRIPTOR
    bLength: 38
    bDescriptorType: STRING (3)
    bString: STMicroelectronics

0000  00 a6 b5 20 02 88 ff ff 43 02 80 27 02 00 2d 00   ... ....C..'..-.
0010  f2 e0 e9 54 00 00 00 00 7c 34 02 00 00 00 00 00   ...T....|4......
0020  26 00 00 00 26 00 00 00 00 00 00 00 00 00 00 00   &...&...........
0030  00 00 00 00 00 00 00 00 00 02 00 00 00 00 00 00   ................
0040  26 03 53 00 54 00 4d 00 69 00 63 00 72 00 6f 00   &.S.T.M.i.c.r.o.
0050  65 00 6c 00 65 00 63 00 74 00 72 00 6f 00 6e 00   e.l.e.c.t.r.o.n.
0060  69 00 63 00 73 00                                 i.c.s.

No.     Time           Source                Destination           Protocol Length Info
    389 1.466131000    host                  39.0                  USB      64     GET DESCRIPTOR Request STRING

Frame 389: 64 bytes on wire (512 bits), 64 bytes captured (512 bits) on interface 0
    Interface id: 0
    Encapsulation type: USB packets with Linux header and padding (115)
    Arrival Time: Feb 22, 2015 16:00:18.144550000 SAST
    [Time shift for this packet: 0.000000000 seconds]
    Epoch Time: 1424613618.144550000 seconds
    [Time delta from previous captured frame: 0.000042000 seconds]
    [Time delta from previous displayed frame: 0.000042000 seconds]
    [Time since reference or first frame: 1.466131000 seconds]
    Frame Number: 389
    Frame Length: 64 bytes (512 bits)
    Capture Length: 64 bytes (512 bits)
    [Frame is marked: False]
    [Frame is ignored: False]
    [Protocols in frame: usb]
USB URB
    URB id: 0xffff880220b5a600
    URB type: URB_SUBMIT ('S')
    URB transfer type: URB_CONTROL (0x02)
    Endpoint: 0x80, Direction: IN
        1... .... = Direction: IN (1)
        .000 0000 = Endpoint value: 0
    Device: 39
    URB bus id: 2
    Device setup request: relevant (0)
    Data: not present ('<')
    URB sec: 1424613618
    URB usec: 144550
    URB status: Operation now in progress (-EINPROGRESS) (-115)
    URB length [bytes]: 255
    Data length [bytes]: 0
    [Response in: 390]
URB setup
    bmRequestType: 0x80
        1... .... = Direction: Device-to-host
        .00. .... = Type: Standard (0x00)
        ...0 0000 = Recipient: Device (0x00)
    bRequest: GET DESCRIPTOR (6)
    Descriptor Index: 0x03
    bDescriptorType: STRING (3)
    Language Id: English (United States) (0x0409)
    wLength: 255

0000  00 a6 b5 20 02 88 ff ff 53 02 80 27 02 00 00 3c   ... ....S..'...<
0010  f2 e0 e9 54 00 00 00 00 a6 34 02 00 8d ff ff ff   ...T.....4......
0020  ff 00 00 00 00 00 00 00 80 06 03 03 09 04 ff 00   ................
0030  00 00 00 00 00 00 00 00 00 02 00 00 00 00 00 00   ................

No.     Time           Source                Destination           Protocol Length Info
    390 1.466313000    39.0                  host                  USB      90     GET DESCRIPTOR Response STRING

Frame 390: 90 bytes on wire (720 bits), 90 bytes captured (720 bits) on interface 0
    Interface id: 0
    Encapsulation type: USB packets with Linux header and padding (115)
    Arrival Time: Feb 22, 2015 16:00:18.144732000 SAST
    [Time shift for this packet: 0.000000000 seconds]
    Epoch Time: 1424613618.144732000 seconds
    [Time delta from previous captured frame: 0.000182000 seconds]
    [Time delta from previous displayed frame: 0.000182000 seconds]
    [Time since reference or first frame: 1.466313000 seconds]
    Frame Number: 390
    Frame Length: 90 bytes (720 bits)
    Capture Length: 90 bytes (720 bits)
    [Frame is marked: False]
    [Frame is ignored: False]
    [Protocols in frame: usb]
USB URB
    URB id: 0xffff880220b5a600
    URB type: URB_COMPLETE ('C')
    URB transfer type: URB_CONTROL (0x02)
    Endpoint: 0x80, Direction: IN
        1... .... = Direction: IN (1)
        .000 0000 = Endpoint value: 0
    Device: 39
    URB bus id: 2
    Device setup request: not relevant ('-')
    Data: present (0)
    URB sec: 1424613618
    URB usec: 144732
    URB status: Success (0)
    URB length [bytes]: 26
    Data length [bytes]: 26
    [Request in: 389]
    [Time from request: 0.000182000 seconds]
    [bInterfaceClass: Unknown (0xffff)]
STRING DESCRIPTOR
    bLength: 26
    bDescriptorType: STRING (3)
    bString: 00000000001B

0000  00 a6 b5 20 02 88 ff ff 43 02 80 27 02 00 2d 00   ... ....C..'..-.
0010  f2 e0 e9 54 00 00 00 00 5c 35 02 00 00 00 00 00   ...T....\5......
0020  1a 00 00 00 1a 00 00 00 00 00 00 00 00 00 00 00   ................
0030  00 00 00 00 00 00 00 00 00 02 00 00 00 00 00 00   ................
0040  1a 03 30 00 30 00 30 00 30 00 30 00 30 00 30 00   ..0.0.0.0.0.0.0.
0050  30 00 30 00 30 00 31 00 42 00                     0.0.0.1.B.

No.     Time           Source                Destination           Protocol Length Info
    391 1.466555000    host                  39.0                  USB      64     SET CONFIGURATION Request

Frame 391: 64 bytes on wire (512 bits), 64 bytes captured (512 bits) on interface 0
    Interface id: 0
    Encapsulation type: USB packets with Linux header and padding (115)
    Arrival Time: Feb 22, 2015 16:00:18.144974000 SAST
    [Time shift for this packet: 0.000000000 seconds]
    Epoch Time: 1424613618.144974000 seconds
    [Time delta from previous captured frame: 0.000242000 seconds]
    [Time delta from previous displayed frame: 0.000242000 seconds]
    [Time since reference or first frame: 1.466555000 seconds]
    Frame Number: 391
    Frame Length: 64 bytes (512 bits)
    Capture Length: 64 bytes (512 bits)
    [Frame is marked: False]
    [Frame is ignored: False]
    [Protocols in frame: usb]
USB URB
    URB id: 0xffff880220b5a900
    URB type: URB_SUBMIT ('S')
    URB transfer type: URB_CONTROL (0x02)
    Endpoint: 0x00, Direction: OUT
        0... .... = Direction: OUT (0)
        .000 0000 = Endpoint value: 0
    Device: 39
    URB bus id: 2
    Device setup request: relevant (0)
    Data: present (0)
    URB sec: 1424613618
    URB usec: 144974
    URB status: Operation now in progress (-EINPROGRESS) (-115)
    URB length [bytes]: 0
    Data length [bytes]: 0
    [Response in: 392]
URB setup
    bmRequestType: 0x00
        0... .... = Direction: Host-to-device
        .00. .... = Type: Standard (0x00)
        ...0 0000 = Recipient: Device (0x00)
    bRequest: SET CONFIGURATION (9)
    bConfigurationValue: 1
    wIndex: 0
    wLength: 0

0000  00 a9 b5 20 02 88 ff ff 53 02 00 27 02 00 00 00   ... ....S..'....
0010  f2 e0 e9 54 00 00 00 00 4e 36 02 00 8d ff ff ff   ...T....N6......
0020  00 00 00 00 00 00 00 00 00 09 01 00 00 00 00 00   ................
0030  00 00 00 00 00 00 00 00 00 00 00 00 00 00 00 00   ................

No.     Time           Source                Destination           Protocol Length Info
    392 1.466795000    39.0                  host                  USB      64     SET CONFIGURATION Response

Frame 392: 64 bytes on wire (512 bits), 64 bytes captured (512 bits) on interface 0
    Interface id: 0
    Encapsulation type: USB packets with Linux header and padding (115)
    Arrival Time: Feb 22, 2015 16:00:18.145214000 SAST
    [Time shift for this packet: 0.000000000 seconds]
    Epoch Time: 1424613618.145214000 seconds
    [Time delta from previous captured frame: 0.000240000 seconds]
    [Time delta from previous displayed frame: 0.000240000 seconds]
    [Time since reference or first frame: 1.466795000 seconds]
    Frame Number: 392
    Frame Length: 64 bytes (512 bits)
    Capture Length: 64 bytes (512 bits)
    [Frame is marked: False]
    [Frame is ignored: False]
    [Protocols in frame: usb]
USB URB
    URB id: 0xffff880220b5a900
    URB type: URB_COMPLETE ('C')
    URB transfer type: URB_CONTROL (0x02)
    Endpoint: 0x00, Direction: OUT
        0... .... = Direction: OUT (0)
        .000 0000 = Endpoint value: 0
    Device: 39
    URB bus id: 2
    Device setup request: not relevant ('-')
    Data: not present ('>')
    URB sec: 1424613618
    URB usec: 145214
    URB status: Success (0)
    URB length [bytes]: 0
    Data length [bytes]: 0
    [Request in: 391]
    [Time from request: 0.000240000 seconds]
    [bInterfaceClass: Unknown (0xffff)]

0000  00 a9 b5 20 02 88 ff ff 43 02 00 27 02 00 2d 3e   ... ....C..'..->
0010  f2 e0 e9 54 00 00 00 00 3e 37 02 00 00 00 00 00   ...T....>7......
0020  00 00 00 00 00 00 00 00 00 00 00 00 00 00 00 00   ................
0030  00 00 00 00 00 00 00 00 00 00 00 00 00 00 00 00   ................

No.     Time           Source                Destination           Protocol Length Info
    393 1.466904000    host                  39.0                  USB      64     URB_CONTROL out

Frame 393: 64 bytes on wire (512 bits), 64 bytes captured (512 bits) on interface 0
    Interface id: 0
    Encapsulation type: USB packets with Linux header and padding (115)
    Arrival Time: Feb 22, 2015 16:00:18.145323000 SAST
    [Time shift for this packet: 0.000000000 seconds]
    Epoch Time: 1424613618.145323000 seconds
    [Time delta from previous captured frame: 0.000109000 seconds]
    [Time delta from previous displayed frame: 0.000109000 seconds]
    [Time since reference or first frame: 1.466904000 seconds]
    Frame Number: 393
    Frame Length: 64 bytes (512 bits)
    Capture Length: 64 bytes (512 bits)
    [Frame is marked: False]
    [Frame is ignored: False]
    [Protocols in frame: usb]
USB URB
    URB id: 0xffff8801c36b1c00
    URB type: URB_SUBMIT ('S')
    URB transfer type: URB_CONTROL (0x02)
    Endpoint: 0x00, Direction: OUT
        0... .... = Direction: OUT (0)
        .000 0000 = Endpoint value: 0
    Device: 39
    URB bus id: 2
    Device setup request: relevant (0)
    Data: present (0)
    URB sec: 1424613618
    URB usec: 145323
    URB status: Operation now in progress (-EINPROGRESS) (-115)
    URB length [bytes]: 0
    Data length [bytes]: 0
    [Response in: 394]
    [bInterfaceClass: Communications and CDC Control (0x02)]
URB setup
    bmRequestType: 0x21
        0... .... = Direction: Host-to-device
        .01. .... = Type: Class (0x01)
        ...0 0001 = Recipient: Interface (0x01)
    bRequest: 34
    wValue: 0x0000
    wIndex: 0
    wLength: 0

0000  00 1c 6b c3 01 88 ff ff 53 02 00 27 02 00 00 00   ..k.....S..'....
0010  f2 e0 e9 54 00 00 00 00 ab 37 02 00 8d ff ff ff   ...T.....7......
0020  00 00 00 00 00 00 00 00 21 22 00 00 00 00 00 00   ........!"......
0030  00 00 00 00 00 00 00 00 00 00 00 00 00 00 00 00   ................

No.     Time           Source                Destination           Protocol Length Info
    394 1.467043000    39.0                  host                  USB      64     URB_CONTROL out

Frame 394: 64 bytes on wire (512 bits), 64 bytes captured (512 bits) on interface 0
    Interface id: 0
    Encapsulation type: USB packets with Linux header and padding (115)
    Arrival Time: Feb 22, 2015 16:00:18.145462000 SAST
    [Time shift for this packet: 0.000000000 seconds]
    Epoch Time: 1424613618.145462000 seconds
    [Time delta from previous captured frame: 0.000139000 seconds]
    [Time delta from previous displayed frame: 0.000139000 seconds]
    [Time since reference or first frame: 1.467043000 seconds]
    Frame Number: 394
    Frame Length: 64 bytes (512 bits)
    Capture Length: 64 bytes (512 bits)
    [Frame is marked: False]
    [Frame is ignored: False]
    [Protocols in frame: usb]
USB URB
    URB id: 0xffff8801c36b1c00
    URB type: URB_COMPLETE ('C')
    URB transfer type: URB_CONTROL (0x02)
    Endpoint: 0x00, Direction: OUT
        0... .... = Direction: OUT (0)
        .000 0000 = Endpoint value: 0
    Device: 39
    URB bus id: 2
    Device setup request: not relevant ('-')
    Data: not present ('>')
    URB sec: 1424613618
    URB usec: 145462
    URB status: Success (0)
    URB length [bytes]: 0
    Data length [bytes]: 0
    [Request in: 393]
    [Time from request: 0.000139000 seconds]
    [bInterfaceClass: Communications and CDC Control (0x02)]

0000  00 1c 6b c3 01 88 ff ff 43 02 00 27 02 00 2d 3e   ..k.....C..'..->
0010  f2 e0 e9 54 00 00 00 00 36 38 02 00 00 00 00 00   ...T....68......
0020  00 00 00 00 00 00 00 00 00 00 00 00 00 00 00 00   ................
0030  00 00 00 00 00 00 00 00 00 00 00 00 00 00 00 00   ................

No.     Time           Source                Destination           Protocol Length Info
    395 1.467064000    host                  39.0                  USB      71     URB_CONTROL out

Frame 395: 71 bytes on wire (568 bits), 71 bytes captured (568 bits) on interface 0
    Interface id: 0
    Encapsulation type: USB packets with Linux header and padding (115)
    Arrival Time: Feb 22, 2015 16:00:18.145483000 SAST
    [Time shift for this packet: 0.000000000 seconds]
    Epoch Time: 1424613618.145483000 seconds
    [Time delta from previous captured frame: 0.000021000 seconds]
    [Time delta from previous displayed frame: 0.000021000 seconds]
    [Time since reference or first frame: 1.467064000 seconds]
    Frame Number: 395
    Frame Length: 71 bytes (568 bits)
    Capture Length: 71 bytes (568 bits)
    [Frame is marked: False]
    [Frame is ignored: False]
    [Protocols in frame: usb]
USB URB
    URB id: 0xffff8801c36b1c00
    URB type: URB_SUBMIT ('S')
    URB transfer type: URB_CONTROL (0x02)
    Endpoint: 0x00, Direction: OUT
        0... .... = Direction: OUT (0)
        .000 0000 = Endpoint value: 0
    Device: 39
    URB bus id: 2
    Device setup request: relevant (0)
    Data: present (0)
    URB sec: 1424613618
    URB usec: 145483
    URB status: Operation now in progress (-EINPROGRESS) (-115)
    URB length [bytes]: 7
    Data length [bytes]: 7
    [Response in: 396]
    [bInterfaceClass: Communications and CDC Control (0x02)]
URB setup
    bmRequestType: 0x21
        0... .... = Direction: Host-to-device
        .01. .... = Type: Class (0x01)
        ...0 0001 = Recipient: Interface (0x01)
    bRequest: 32
    wValue: 0x0000
    wIndex: 0
    wLength: 7
Leftover Capture Data: 80250000000008

0000  00 1c 6b c3 01 88 ff ff 53 02 00 27 02 00 00 00   ..k.....S..'....
0010  f2 e0 e9 54 00 00 00 00 4b 38 02 00 8d ff ff ff   ...T....K8......
0020  07 00 00 00 07 00 00 00 21 20 00 00 00 00 07 00   ........! ......
0030  00 00 00 00 00 00 00 00 00 00 00 00 00 00 00 00   ................
0040  80 25 00 00 00 00 08                              .%.....

No.     Time           Source                Destination           Protocol Length Info
    396 1.467307000    39.0                  host                  USB      64     URB_CONTROL out

Frame 396: 64 bytes on wire (512 bits), 64 bytes captured (512 bits) on interface 0
    Interface id: 0
    Encapsulation type: USB packets with Linux header and padding (115)
    Arrival Time: Feb 22, 2015 16:00:18.145726000 SAST
    [Time shift for this packet: 0.000000000 seconds]
    Epoch Time: 1424613618.145726000 seconds
    [Time delta from previous captured frame: 0.000243000 seconds]
    [Time delta from previous displayed frame: 0.000243000 seconds]
    [Time since reference or first frame: 1.467307000 seconds]
    Frame Number: 396
    Frame Length: 64 bytes (512 bits)
    Capture Length: 64 bytes (512 bits)
    [Frame is marked: False]
    [Frame is ignored: False]
    [Protocols in frame: usb]
USB URB
    URB id: 0xffff8801c36b1c00
    URB type: URB_COMPLETE ('C')
    URB transfer type: URB_CONTROL (0x02)
    Endpoint: 0x00, Direction: OUT
        0... .... = Direction: OUT (0)
        .000 0000 = Endpoint value: 0
    Device: 39
    URB bus id: 2
    Device setup request: not relevant ('-')
    Data: not present ('>')
    URB sec: 1424613618
    URB usec: 145726
    URB status: Success (0)
    URB length [bytes]: 7
    Data length [bytes]: 0
    [Request in: 395]
    [Time from request: 0.000243000 seconds]
    [bInterfaceClass: Communications and CDC Control (0x02)]

0000  00 1c 6b c3 01 88 ff ff 43 02 00 27 02 00 2d 3e   ..k.....C..'..->
0010  f2 e0 e9 54 00 00 00 00 3e 39 02 00 00 00 00 00   ...T....>9......
0020  07 00 00 00 00 00 00 00 00 00 00 00 00 00 00 00   ................
0030  00 00 00 00 00 00 00 00 00 00 00 00 00 00 00 00   ................

No.     Time           Source                Destination           Protocol Length Info
    399 1.485517000    host                  39.2                  USB      64     URB_INTERRUPT in

Frame 399: 64 bytes on wire (512 bits), 64 bytes captured (512 bits) on interface 0
    Interface id: 0
    Encapsulation type: USB packets with Linux header and padding (115)
    Arrival Time: Feb 22, 2015 16:00:18.163936000 SAST
    [Time shift for this packet: 0.000000000 seconds]
    Epoch Time: 1424613618.163936000 seconds
    [Time delta from previous captured frame: 0.017847000 seconds]
    [Time delta from previous displayed frame: 0.018210000 seconds]
    [Time since reference or first frame: 1.485517000 seconds]
    Frame Number: 399
    Frame Length: 64 bytes (512 bits)
    Capture Length: 64 bytes (512 bits)
    [Frame is marked: False]
    [Frame is ignored: False]
    [Protocols in frame: usb]
USB URB
    URB id: 0xffff880220b5a240
    URB type: URB_SUBMIT ('S')
    URB transfer type: URB_INTERRUPT (0x01)
    Endpoint: 0x82, Direction: IN
        1... .... = Direction: IN (1)
        .000 0010 = Endpoint value: 2
    Device: 39
    URB bus id: 2
    Device setup request: not relevant ('-')
    Data: not present ('<')
    URB sec: 1424613618
    URB usec: 163936
    URB status: Operation now in progress (-EINPROGRESS) (-115)
    URB length [bytes]: 8
    Data length [bytes]: 0
    [Response in: 1824]
    [bInterfaceClass: Communications and CDC Control (0x02)]

0000  40 a2 b5 20 02 88 ff ff 53 01 82 27 02 00 2d 3c   @.. ....S..'..-<
0010  f2 e0 e9 54 00 00 00 00 60 80 02 00 8d ff ff ff   ...T....`.......
0020  08 00 00 00 00 00 00 00 00 00 00 00 00 00 00 00   ................
0030  10 00 00 00 00 00 00 00 04 02 00 00 00 00 00 00   ................

No.     Time           Source                Destination           Protocol Length Info
    400 1.485533000    host                  39.0                  USB      64     URB_CONTROL out

Frame 400: 64 bytes on wire (512 bits), 64 bytes captured (512 bits) on interface 0
    Interface id: 0
    Encapsulation type: USB packets with Linux header and padding (115)
    Arrival Time: Feb 22, 2015 16:00:18.163952000 SAST
    [Time shift for this packet: 0.000000000 seconds]
    Epoch Time: 1424613618.163952000 seconds
    [Time delta from previous captured frame: 0.000016000 seconds]
    [Time delta from previous displayed frame: 0.000016000 seconds]
    [Time since reference or first frame: 1.485533000 seconds]
    Frame Number: 400
    Frame Length: 64 bytes (512 bits)
    Capture Length: 64 bytes (512 bits)
    [Frame is marked: False]
    [Frame is ignored: False]
    [Protocols in frame: usb]
USB URB
    URB id: 0xffff8801a8d2e840
    URB type: URB_SUBMIT ('S')
    URB transfer type: URB_CONTROL (0x02)
    Endpoint: 0x00, Direction: OUT
        0... .... = Direction: OUT (0)
        .000 0000 = Endpoint value: 0
    Device: 39
    URB bus id: 2
    Device setup request: relevant (0)
    Data: present (0)
    URB sec: 1424613618
    URB usec: 163952
    URB status: Operation now in progress (-EINPROGRESS) (-115)
    URB length [bytes]: 0
    Data length [bytes]: 0
    [Response in: 401]
    [bInterfaceClass: Communications and CDC Control (0x02)]
URB setup
    bmRequestType: 0x21
        0... .... = Direction: Host-to-device
        .01. .... = Type: Class (0x01)
        ...0 0001 = Recipient: Interface (0x01)
    bRequest: 34
    wValue: 0x0003
    wIndex: 0
    wLength: 0

0000  40 e8 d2 a8 01 88 ff ff 53 02 00 27 02 00 00 00   @.......S..'....
0010  f2 e0 e9 54 00 00 00 00 70 80 02 00 8d ff ff ff   ...T....p.......
0020  00 00 00 00 00 00 00 00 21 22 03 00 00 00 00 00   ........!"......
0030  00 00 00 00 00 00 00 00 00 00 00 00 00 00 00 00   ................

No.     Time           Source                Destination           Protocol Length Info
    401 1.485671000    39.0                  host                  USB      64     URB_CONTROL out

Frame 401: 64 bytes on wire (512 bits), 64 bytes captured (512 bits) on interface 0
    Interface id: 0
    Encapsulation type: USB packets with Linux header and padding (115)
    Arrival Time: Feb 22, 2015 16:00:18.164090000 SAST
    [Time shift for this packet: 0.000000000 seconds]
    Epoch Time: 1424613618.164090000 seconds
    [Time delta from previous captured frame: 0.000138000 seconds]
    [Time delta from previous displayed frame: 0.000138000 seconds]
    [Time since reference or first frame: 1.485671000 seconds]
    Frame Number: 401
    Frame Length: 64 bytes (512 bits)
    Capture Length: 64 bytes (512 bits)
    [Frame is marked: False]
    [Frame is ignored: False]
    [Protocols in frame: usb]
USB URB
    URB id: 0xffff8801a8d2e840
    URB type: URB_COMPLETE ('C')
    URB transfer type: URB_CONTROL (0x02)
    Endpoint: 0x00, Direction: OUT
        0... .... = Direction: OUT (0)
        .000 0000 = Endpoint value: 0
    Device: 39
    URB bus id: 2
    Device setup request: not relevant ('-')
    Data: not present ('>')
    URB sec: 1424613618
    URB usec: 164090
    URB status: Success (0)
    URB length [bytes]: 0
    Data length [bytes]: 0
    [Request in: 400]
    [Time from request: 0.000138000 seconds]
    [bInterfaceClass: Communications and CDC Control (0x02)]

0000  40 e8 d2 a8 01 88 ff ff 43 02 00 27 02 00 2d 3e   @.......C..'..->
0010  f2 e0 e9 54 00 00 00 00 fa 80 02 00 00 00 00 00   ...T............
0020  00 00 00 00 00 00 00 00 00 00 00 00 00 00 00 00   ................
0030  00 00 00 00 00 00 00 00 00 00 00 00 00 00 00 00   ................

No.     Time           Source                Destination           Protocol Length Info
    402 1.485678000    host                  39.1                  USB      64     URB_BULK in

Frame 402: 64 bytes on wire (512 bits), 64 bytes captured (512 bits) on interface 0
    Interface id: 0
    Encapsulation type: USB packets with Linux header and padding (115)
    Arrival Time: Feb 22, 2015 16:00:18.164097000 SAST
    [Time shift for this packet: 0.000000000 seconds]
    Epoch Time: 1424613618.164097000 seconds
    [Time delta from previous captured frame: 0.000007000 seconds]
    [Time delta from previous displayed frame: 0.000007000 seconds]
    [Time since reference or first frame: 1.485678000 seconds]
    Frame Number: 402
    Frame Length: 64 bytes (512 bits)
    Capture Length: 64 bytes (512 bits)
    [Frame is marked: False]
    [Frame is ignored: False]
    [Protocols in frame: usb]
USB URB
    URB id: 0xffff88041783b9c0
    URB type: URB_SUBMIT ('S')
    URB transfer type: URB_BULK (0x03)
    Endpoint: 0x81, Direction: IN
        1... .... = Direction: IN (1)
        .000 0001 = Endpoint value: 1
    Device: 39
    URB bus id: 2
    Device setup request: not relevant ('-')
    Data: not present ('<')
    URB sec: 1424613618
    URB usec: 164097
    URB status: Operation now in progress (-EINPROGRESS) (-115)
    URB length [bytes]: 128
    Data length [bytes]: 0
    [bInterfaceClass: CDC-Data (0x0a)]

0000  c0 b9 83 17 04 88 ff ff 53 03 81 27 02 00 2d 3c   ........S..'..-<
0010  f2 e0 e9 54 00 00 00 00 01 81 02 00 8d ff ff ff   ...T............
0020  80 00 00 00 00 00 00 00 00 00 00 00 00 00 00 00   ................
0030  00 00 00 00 00 00 00 00 04 02 00 00 00 00 00 00   ................

No.     Time           Source                Destination           Protocol Length Info
    403 1.485680000    host                  39.1                  USB      64     URB_BULK in

Frame 403: 64 bytes on wire (512 bits), 64 bytes captured (512 bits) on interface 0
    Interface id: 0
    Encapsulation type: USB packets with Linux header and padding (115)
    Arrival Time: Feb 22, 2015 16:00:18.164099000 SAST
    [Time shift for this packet: 0.000000000 seconds]
    Epoch Time: 1424613618.164099000 seconds
    [Time delta from previous captured frame: 0.000002000 seconds]
    [Time delta from previous displayed frame: 0.000002000 seconds]
    [Time since reference or first frame: 1.485680000 seconds]
    Frame Number: 403
    Frame Length: 64 bytes (512 bits)
    Capture Length: 64 bytes (512 bits)
    [Frame is marked: False]
    [Frame is ignored: False]
    [Protocols in frame: usb]
USB URB
    URB id: 0xffff88041783b780
    URB type: URB_SUBMIT ('S')
    URB transfer type: URB_BULK (0x03)
    Endpoint: 0x81, Direction: IN
        1... .... = Direction: IN (1)
        .000 0001 = Endpoint value: 1
    Device: 39
    URB bus id: 2
    Device setup request: not relevant ('-')
    Data: not present ('<')
    URB sec: 1424613618
    URB usec: 164099
    URB status: Operation now in progress (-EINPROGRESS) (-115)
    URB length [bytes]: 128
    Data length [bytes]: 0
    [bInterfaceClass: CDC-Data (0x0a)]

0000  80 b7 83 17 04 88 ff ff 53 03 81 27 02 00 2d 3c   ........S..'..-<
0010  f2 e0 e9 54 00 00 00 00 03 81 02 00 8d ff ff ff   ...T............
0020  80 00 00 00 00 00 00 00 00 00 00 00 00 00 00 00   ................
0030  00 00 00 00 00 00 00 00 04 02 00 00 00 00 00 00   ................

No.     Time           Source                Destination           Protocol Length Info
    404 1.485680000    host                  39.1                  USB      64     URB_BULK in

Frame 404: 64 bytes on wire (512 bits), 64 bytes captured (512 bits) on interface 0
    Interface id: 0
    Encapsulation type: USB packets with Linux header and padding (115)
    Arrival Time: Feb 22, 2015 16:00:18.164099000 SAST
    [Time shift for this packet: 0.000000000 seconds]
    Epoch Time: 1424613618.164099000 seconds
    [Time delta from previous captured frame: 0.000000000 seconds]
    [Time delta from previous displayed frame: 0.000000000 seconds]
    [Time since reference or first frame: 1.485680000 seconds]
    Frame Number: 404
    Frame Length: 64 bytes (512 bits)
    Capture Length: 64 bytes (512 bits)
    [Frame is marked: False]
    [Frame is ignored: False]
    [Protocols in frame: usb]
USB URB
    URB id: 0xffff8801c36f8600
    URB type: URB_SUBMIT ('S')
    URB transfer type: URB_BULK (0x03)
    Endpoint: 0x81, Direction: IN
        1... .... = Direction: IN (1)
        .000 0001 = Endpoint value: 1
    Device: 39
    URB bus id: 2
    Device setup request: not relevant ('-')
    Data: not present ('<')
    URB sec: 1424613618
    URB usec: 164099
    URB status: Operation now in progress (-EINPROGRESS) (-115)
    URB length [bytes]: 128
    Data length [bytes]: 0
    [bInterfaceClass: CDC-Data (0x0a)]

0000  00 86 6f c3 01 88 ff ff 53 03 81 27 02 00 2d 3c   ..o.....S..'..-<
0010  f2 e0 e9 54 00 00 00 00 03 81 02 00 8d ff ff ff   ...T............
0020  80 00 00 00 00 00 00 00 00 00 00 00 00 00 00 00   ................
0030  00 00 00 00 00 00 00 00 04 02 00 00 00 00 00 00   ................

No.     Time           Source                Destination           Protocol Length Info
    405 1.485681000    host                  39.1                  USB      64     URB_BULK in

Frame 405: 64 bytes on wire (512 bits), 64 bytes captured (512 bits) on interface 0
    Interface id: 0
    Encapsulation type: USB packets with Linux header and padding (115)
    Arrival Time: Feb 22, 2015 16:00:18.164100000 SAST
    [Time shift for this packet: 0.000000000 seconds]
    Epoch Time: 1424613618.164100000 seconds
    [Time delta from previous captured frame: 0.000001000 seconds]
    [Time delta from previous displayed frame: 0.000001000 seconds]
    [Time since reference or first frame: 1.485681000 seconds]
    Frame Number: 405
    Frame Length: 64 bytes (512 bits)
    Capture Length: 64 bytes (512 bits)
    [Frame is marked: False]
    [Frame is ignored: False]
    [Protocols in frame: usb]
USB URB
    URB id: 0xffff8801c36f8a80
    URB type: URB_SUBMIT ('S')
    URB transfer type: URB_BULK (0x03)
    Endpoint: 0x81, Direction: IN
        1... .... = Direction: IN (1)
        .000 0001 = Endpoint value: 1
    Device: 39
    URB bus id: 2
    Device setup request: not relevant ('-')
    Data: not present ('<')
    URB sec: 1424613618
    URB usec: 164100
    URB status: Operation now in progress (-EINPROGRESS) (-115)
    URB length [bytes]: 128
    Data length [bytes]: 0
    [bInterfaceClass: CDC-Data (0x0a)]

0000  80 8a 6f c3 01 88 ff ff 53 03 81 27 02 00 2d 3c   ..o.....S..'..-<
0010  f2 e0 e9 54 00 00 00 00 04 81 02 00 8d ff ff ff   ...T............
0020  80 00 00 00 00 00 00 00 00 00 00 00 00 00 00 00   ................
0030  00 00 00 00 00 00 00 00 04 02 00 00 00 00 00 00   ................

No.     Time           Source                Destination           Protocol Length Info
    406 1.485681000    host                  39.1                  USB      64     URB_BULK in

Frame 406: 64 bytes on wire (512 bits), 64 bytes captured (512 bits) on interface 0
    Interface id: 0
    Encapsulation type: USB packets with Linux header and padding (115)
    Arrival Time: Feb 22, 2015 16:00:18.164100000 SAST
    [Time shift for this packet: 0.000000000 seconds]
    Epoch Time: 1424613618.164100000 seconds
    [Time delta from previous captured frame: 0.000000000 seconds]
    [Time delta from previous displayed frame: 0.000000000 seconds]
    [Time since reference or first frame: 1.485681000 seconds]
    Frame Number: 406
    Frame Length: 64 bytes (512 bits)
    Capture Length: 64 bytes (512 bits)
    [Frame is marked: False]
    [Frame is ignored: False]
    [Protocols in frame: usb]
USB URB
    URB id: 0xffff8801c36f8180
    URB type: URB_SUBMIT ('S')
    URB transfer type: URB_BULK (0x03)
    Endpoint: 0x81, Direction: IN
        1... .... = Direction: IN (1)
        .000 0001 = Endpoint value: 1
    Device: 39
    URB bus id: 2
    Device setup request: not relevant ('-')
    Data: not present ('<')
    URB sec: 1424613618
    URB usec: 164100
    URB status: Operation now in progress (-EINPROGRESS) (-115)
    URB length [bytes]: 128
    Data length [bytes]: 0
    [bInterfaceClass: CDC-Data (0x0a)]

0000  80 81 6f c3 01 88 ff ff 53 03 81 27 02 00 2d 3c   ..o.....S..'..-<
0010  f2 e0 e9 54 00 00 00 00 04 81 02 00 8d ff ff ff   ...T............
0020  80 00 00 00 00 00 00 00 00 00 00 00 00 00 00 00   ................
0030  00 00 00 00 00 00 00 00 04 02 00 00 00 00 00 00   ................

No.     Time           Source                Destination           Protocol Length Info
    407 1.485682000    host                  39.1                  USB      64     URB_BULK in

Frame 407: 64 bytes on wire (512 bits), 64 bytes captured (512 bits) on interface 0
    Interface id: 0
    Encapsulation type: USB packets with Linux header and padding (115)
    Arrival Time: Feb 22, 2015 16:00:18.164101000 SAST
    [Time shift for this packet: 0.000000000 seconds]
    Epoch Time: 1424613618.164101000 seconds
    [Time delta from previous captured frame: 0.000001000 seconds]
    [Time delta from previous displayed frame: 0.000001000 seconds]
    [Time since reference or first frame: 1.485682000 seconds]
    Frame Number: 407
    Frame Length: 64 bytes (512 bits)
    Capture Length: 64 bytes (512 bits)
    [Frame is marked: False]
    [Frame is ignored: False]
    [Protocols in frame: usb]
USB URB
    URB id: 0xffff8801c36f86c0
    URB type: URB_SUBMIT ('S')
    URB transfer type: URB_BULK (0x03)
    Endpoint: 0x81, Direction: IN
        1... .... = Direction: IN (1)
        .000 0001 = Endpoint value: 1
    Device: 39
    URB bus id: 2
    Device setup request: not relevant ('-')
    Data: not present ('<')
    URB sec: 1424613618
    URB usec: 164101
    URB status: Operation now in progress (-EINPROGRESS) (-115)
    URB length [bytes]: 128
    Data length [bytes]: 0
    [bInterfaceClass: CDC-Data (0x0a)]

0000  c0 86 6f c3 01 88 ff ff 53 03 81 27 02 00 2d 3c   ..o.....S..'..-<
0010  f2 e0 e9 54 00 00 00 00 05 81 02 00 8d ff ff ff   ...T............
0020  80 00 00 00 00 00 00 00 00 00 00 00 00 00 00 00   ................
0030  00 00 00 00 00 00 00 00 04 02 00 00 00 00 00 00   ................

No.     Time           Source                Destination           Protocol Length Info
    408 1.485682000    host                  39.1                  USB      64     URB_BULK in

Frame 408: 64 bytes on wire (512 bits), 64 bytes captured (512 bits) on interface 0
    Interface id: 0
    Encapsulation type: USB packets with Linux header and padding (115)
    Arrival Time: Feb 22, 2015 16:00:18.164101000 SAST
    [Time shift for this packet: 0.000000000 seconds]
    Epoch Time: 1424613618.164101000 seconds
    [Time delta from previous captured frame: 0.000000000 seconds]
    [Time delta from previous displayed frame: 0.000000000 seconds]
    [Time since reference or first frame: 1.485682000 seconds]
    Frame Number: 408
    Frame Length: 64 bytes (512 bits)
    Capture Length: 64 bytes (512 bits)
    [Frame is marked: False]
    [Frame is ignored: False]
    [Protocols in frame: usb]
USB URB
    URB id: 0xffff8801c36f8480
    URB type: URB_SUBMIT ('S')
    URB transfer type: URB_BULK (0x03)
    Endpoint: 0x81, Direction: IN
        1... .... = Direction: IN (1)
        .000 0001 = Endpoint value: 1
    Device: 39
    URB bus id: 2
    Device setup request: not relevant ('-')
    Data: not present ('<')
    URB sec: 1424613618
    URB usec: 164101
    URB status: Operation now in progress (-EINPROGRESS) (-115)
    URB length [bytes]: 128
    Data length [bytes]: 0
    [bInterfaceClass: CDC-Data (0x0a)]

0000  80 84 6f c3 01 88 ff ff 53 03 81 27 02 00 2d 3c   ..o.....S..'..-<
0010  f2 e0 e9 54 00 00 00 00 05 81 02 00 8d ff ff ff   ...T............
0020  80 00 00 00 00 00 00 00 00 00 00 00 00 00 00 00   ................
0030  00 00 00 00 00 00 00 00 04 02 00 00 00 00 00 00   ................

No.     Time           Source                Destination           Protocol Length Info
    409 1.485682000    host                  39.1                  USB      64     URB_BULK in

Frame 409: 64 bytes on wire (512 bits), 64 bytes captured (512 bits) on interface 0
    Interface id: 0
    Encapsulation type: USB packets with Linux header and padding (115)
    Arrival Time: Feb 22, 2015 16:00:18.164101000 SAST
    [Time shift for this packet: 0.000000000 seconds]
    Epoch Time: 1424613618.164101000 seconds
    [Time delta from previous captured frame: 0.000000000 seconds]
    [Time delta from previous displayed frame: 0.000000000 seconds]
    [Time since reference or first frame: 1.485682000 seconds]
    Frame Number: 409
    Frame Length: 64 bytes (512 bits)
    Capture Length: 64 bytes (512 bits)
    [Frame is marked: False]
    [Frame is ignored: False]
    [Protocols in frame: usb]
USB URB
    URB id: 0xffff8801c36f8840
    URB type: URB_SUBMIT ('S')
    URB transfer type: URB_BULK (0x03)
    Endpoint: 0x81, Direction: IN
        1... .... = Direction: IN (1)
        .000 0001 = Endpoint value: 1
    Device: 39
    URB bus id: 2
    Device setup request: not relevant ('-')
    Data: not present ('<')
    URB sec: 1424613618
    URB usec: 164101
    URB status: Operation now in progress (-EINPROGRESS) (-115)
    URB length [bytes]: 128
    Data length [bytes]: 0
    [bInterfaceClass: CDC-Data (0x0a)]

0000  40 88 6f c3 01 88 ff ff 53 03 81 27 02 00 2d 3c   @.o.....S..'..-<
0010  f2 e0 e9 54 00 00 00 00 05 81 02 00 8d ff ff ff   ...T............
0020  80 00 00 00 00 00 00 00 00 00 00 00 00 00 00 00   ................
0030  00 00 00 00 00 00 00 00 04 02 00 00 00 00 00 00   ................

No.     Time           Source                Destination           Protocol Length Info
    410 1.485683000    host                  39.1                  USB      64     URB_BULK in

Frame 410: 64 bytes on wire (512 bits), 64 bytes captured (512 bits) on interface 0
    Interface id: 0
    Encapsulation type: USB packets with Linux header and padding (115)
    Arrival Time: Feb 22, 2015 16:00:18.164102000 SAST
    [Time shift for this packet: 0.000000000 seconds]
    Epoch Time: 1424613618.164102000 seconds
    [Time delta from previous captured frame: 0.000001000 seconds]
    [Time delta from previous displayed frame: 0.000001000 seconds]
    [Time since reference or first frame: 1.485683000 seconds]
    Frame Number: 410
    Frame Length: 64 bytes (512 bits)
    Capture Length: 64 bytes (512 bits)
    [Frame is marked: False]
    [Frame is ignored: False]
    [Protocols in frame: usb]
USB URB
    URB id: 0xffff8801c36f8000
    URB type: URB_SUBMIT ('S')
    URB transfer type: URB_BULK (0x03)
    Endpoint: 0x81, Direction: IN
        1... .... = Direction: IN (1)
        .000 0001 = Endpoint value: 1
    Device: 39
    URB bus id: 2
    Device setup request: not relevant ('-')
    Data: not present ('<')
    URB sec: 1424613618
    URB usec: 164102
    URB status: Operation now in progress (-EINPROGRESS) (-115)
    URB length [bytes]: 128
    Data length [bytes]: 0
    [bInterfaceClass: CDC-Data (0x0a)]

0000  00 80 6f c3 01 88 ff ff 53 03 81 27 02 00 2d 3c   ..o.....S..'..-<
0010  f2 e0 e9 54 00 00 00 00 06 81 02 00 8d ff ff ff   ...T............
0020  80 00 00 00 00 00 00 00 00 00 00 00 00 00 00 00   ................
0030  00 00 00 00 00 00 00 00 04 02 00 00 00 00 00 00   ................

No.     Time           Source                Destination           Protocol Length Info
    411 1.485683000    host                  39.1                  USB      64     URB_BULK in

Frame 411: 64 bytes on wire (512 bits), 64 bytes captured (512 bits) on interface 0
    Interface id: 0
    Encapsulation type: USB packets with Linux header and padding (115)
    Arrival Time: Feb 22, 2015 16:00:18.164102000 SAST
    [Time shift for this packet: 0.000000000 seconds]
    Epoch Time: 1424613618.164102000 seconds
    [Time delta from previous captured frame: 0.000000000 seconds]
    [Time delta from previous displayed frame: 0.000000000 seconds]
    [Time since reference or first frame: 1.485683000 seconds]
    Frame Number: 411
    Frame Length: 64 bytes (512 bits)
    Capture Length: 64 bytes (512 bits)
    [Frame is marked: False]
    [Frame is ignored: False]
    [Protocols in frame: usb]
USB URB
    URB id: 0xffff8801c36f80c0
    URB type: URB_SUBMIT ('S')
    URB transfer type: URB_BULK (0x03)
    Endpoint: 0x81, Direction: IN
        1... .... = Direction: IN (1)
        .000 0001 = Endpoint value: 1
    Device: 39
    URB bus id: 2
    Device setup request: not relevant ('-')
    Data: not present ('<')
    URB sec: 1424613618
    URB usec: 164102
    URB status: Operation now in progress (-EINPROGRESS) (-115)
    URB length [bytes]: 128
    Data length [bytes]: 0
    [bInterfaceClass: CDC-Data (0x0a)]

0000  c0 80 6f c3 01 88 ff ff 53 03 81 27 02 00 2d 3c   ..o.....S..'..-<
0010  f2 e0 e9 54 00 00 00 00 06 81 02 00 8d ff ff ff   ...T............
0020  80 00 00 00 00 00 00 00 00 00 00 00 00 00 00 00   ................
0030  00 00 00 00 00 00 00 00 04 02 00 00 00 00 00 00   ................

No.     Time           Source                Destination           Protocol Length Info
    412 1.485684000    host                  39.1                  USB      64     URB_BULK in

Frame 412: 64 bytes on wire (512 bits), 64 bytes captured (512 bits) on interface 0
    Interface id: 0
    Encapsulation type: USB packets with Linux header and padding (115)
    Arrival Time: Feb 22, 2015 16:00:18.164103000 SAST
    [Time shift for this packet: 0.000000000 seconds]
    Epoch Time: 1424613618.164103000 seconds
    [Time delta from previous captured frame: 0.000001000 seconds]
    [Time delta from previous displayed frame: 0.000001000 seconds]
    [Time since reference or first frame: 1.485684000 seconds]
    Frame Number: 412
    Frame Length: 64 bytes (512 bits)
    Capture Length: 64 bytes (512 bits)
    [Frame is marked: False]
    [Frame is ignored: False]
    [Protocols in frame: usb]
USB URB
    URB id: 0xffff8801c36f89c0
    URB type: URB_SUBMIT ('S')
    URB transfer type: URB_BULK (0x03)
    Endpoint: 0x81, Direction: IN
        1... .... = Direction: IN (1)
        .000 0001 = Endpoint value: 1
    Device: 39
    URB bus id: 2
    Device setup request: not relevant ('-')
    Data: not present ('<')
    URB sec: 1424613618
    URB usec: 164103
    URB status: Operation now in progress (-EINPROGRESS) (-115)
    URB length [bytes]: 128
    Data length [bytes]: 0
    [bInterfaceClass: CDC-Data (0x0a)]

0000  c0 89 6f c3 01 88 ff ff 53 03 81 27 02 00 2d 3c   ..o.....S..'..-<
0010  f2 e0 e9 54 00 00 00 00 07 81 02 00 8d ff ff ff   ...T............
0020  80 00 00 00 00 00 00 00 00 00 00 00 00 00 00 00   ................
0030  00 00 00 00 00 00 00 00 04 02 00 00 00 00 00 00   ................

No.     Time           Source                Destination           Protocol Length Info
    413 1.485684000    host                  39.1                  USB      64     URB_BULK in

Frame 413: 64 bytes on wire (512 bits), 64 bytes captured (512 bits) on interface 0
    Interface id: 0
    Encapsulation type: USB packets with Linux header and padding (115)
    Arrival Time: Feb 22, 2015 16:00:18.164103000 SAST
    [Time shift for this packet: 0.000000000 seconds]
    Epoch Time: 1424613618.164103000 seconds
    [Time delta from previous captured frame: 0.000000000 seconds]
    [Time delta from previous displayed frame: 0.000000000 seconds]
    [Time since reference or first frame: 1.485684000 seconds]
    Frame Number: 413
    Frame Length: 64 bytes (512 bits)
    Capture Length: 64 bytes (512 bits)
    [Frame is marked: False]
    [Frame is ignored: False]
    [Protocols in frame: usb]
USB URB
    URB id: 0xffff8801c36f8e40
    URB type: URB_SUBMIT ('S')
    URB transfer type: URB_BULK (0x03)
    Endpoint: 0x81, Direction: IN
        1... .... = Direction: IN (1)
        .000 0001 = Endpoint value: 1
    Device: 39
    URB bus id: 2
    Device setup request: not relevant ('-')
    Data: not present ('<')
    URB sec: 1424613618
    URB usec: 164103
    URB status: Operation now in progress (-EINPROGRESS) (-115)
    URB length [bytes]: 128
    Data length [bytes]: 0
    [bInterfaceClass: CDC-Data (0x0a)]

0000  40 8e 6f c3 01 88 ff ff 53 03 81 27 02 00 2d 3c   @.o.....S..'..-<
0010  f2 e0 e9 54 00 00 00 00 07 81 02 00 8d ff ff ff   ...T............
0020  80 00 00 00 00 00 00 00 00 00 00 00 00 00 00 00   ................
0030  00 00 00 00 00 00 00 00 04 02 00 00 00 00 00 00   ................

No.     Time           Source                Destination           Protocol Length Info
    414 1.485685000    host                  39.1                  USB      64     URB_BULK in

Frame 414: 64 bytes on wire (512 bits), 64 bytes captured (512 bits) on interface 0
    Interface id: 0
    Encapsulation type: USB packets with Linux header and padding (115)
    Arrival Time: Feb 22, 2015 16:00:18.164104000 SAST
    [Time shift for this packet: 0.000000000 seconds]
    Epoch Time: 1424613618.164104000 seconds
    [Time delta from previous captured frame: 0.000001000 seconds]
    [Time delta from previous displayed frame: 0.000001000 seconds]
    [Time since reference or first frame: 1.485685000 seconds]
    Frame Number: 414
    Frame Length: 64 bytes (512 bits)
    Capture Length: 64 bytes (512 bits)
    [Frame is marked: False]
    [Frame is ignored: False]
    [Protocols in frame: usb]
USB URB
    URB id: 0xffff8801c36f8300
    URB type: URB_SUBMIT ('S')
    URB transfer type: URB_BULK (0x03)
    Endpoint: 0x81, Direction: IN
        1... .... = Direction: IN (1)
        .000 0001 = Endpoint value: 1
    Device: 39
    URB bus id: 2
    Device setup request: not relevant ('-')
    Data: not present ('<')
    URB sec: 1424613618
    URB usec: 164104
    URB status: Operation now in progress (-EINPROGRESS) (-115)
    URB length [bytes]: 128
    Data length [bytes]: 0
    [bInterfaceClass: CDC-Data (0x0a)]

0000  00 83 6f c3 01 88 ff ff 53 03 81 27 02 00 2d 3c   ..o.....S..'..-<
0010  f2 e0 e9 54 00 00 00 00 08 81 02 00 8d ff ff ff   ...T............
0020  80 00 00 00 00 00 00 00 00 00 00 00 00 00 00 00   ................
0030  00 00 00 00 00 00 00 00 04 02 00 00 00 00 00 00   ................

No.     Time           Source                Destination           Protocol Length Info
    415 1.485685000    host                  39.1                  USB      64     URB_BULK in

Frame 415: 64 bytes on wire (512 bits), 64 bytes captured (512 bits) on interface 0
    Interface id: 0
    Encapsulation type: USB packets with Linux header and padding (115)
    Arrival Time: Feb 22, 2015 16:00:18.164104000 SAST
    [Time shift for this packet: 0.000000000 seconds]
    Epoch Time: 1424613618.164104000 seconds
    [Time delta from previous captured frame: 0.000000000 seconds]
    [Time delta from previous displayed frame: 0.000000000 seconds]
    [Time since reference or first frame: 1.485685000 seconds]
    Frame Number: 415
    Frame Length: 64 bytes (512 bits)
    Capture Length: 64 bytes (512 bits)
    [Frame is marked: False]
    [Frame is ignored: False]
    [Protocols in frame: usb]
USB URB
    URB id: 0xffff8801c36f8c00
    URB type: URB_SUBMIT ('S')
    URB transfer type: URB_BULK (0x03)
    Endpoint: 0x81, Direction: IN
        1... .... = Direction: IN (1)
        .000 0001 = Endpoint value: 1
    Device: 39
    URB bus id: 2
    Device setup request: not relevant ('-')
    Data: not present ('<')
    URB sec: 1424613618
    URB usec: 164104
    URB status: Operation now in progress (-EINPROGRESS) (-115)
    URB length [bytes]: 128
    Data length [bytes]: 0
    [bInterfaceClass: CDC-Data (0x0a)]

0000  00 8c 6f c3 01 88 ff ff 53 03 81 27 02 00 2d 3c   ..o.....S..'..-<
0010  f2 e0 e9 54 00 00 00 00 08 81 02 00 8d ff ff ff   ...T............
0020  80 00 00 00 00 00 00 00 00 00 00 00 00 00 00 00   ................
0030  00 00 00 00 00 00 00 00 04 02 00 00 00 00 00 00   ................

No.     Time           Source                Destination           Protocol Length Info
    416 1.485686000    host                  39.1                  USB      64     URB_BULK in

Frame 416: 64 bytes on wire (512 bits), 64 bytes captured (512 bits) on interface 0
    Interface id: 0
    Encapsulation type: USB packets with Linux header and padding (115)
    Arrival Time: Feb 22, 2015 16:00:18.164105000 SAST
    [Time shift for this packet: 0.000000000 seconds]
    Epoch Time: 1424613618.164105000 seconds
    [Time delta from previous captured frame: 0.000001000 seconds]
    [Time delta from previous displayed frame: 0.000001000 seconds]
    [Time since reference or first frame: 1.485686000 seconds]
    Frame Number: 416
    Frame Length: 64 bytes (512 bits)
    Capture Length: 64 bytes (512 bits)
    [Frame is marked: False]
    [Frame is ignored: False]
    [Protocols in frame: usb]
USB URB
    URB id: 0xffff8802c1cd1b40
    URB type: URB_SUBMIT ('S')
    URB transfer type: URB_BULK (0x03)
    Endpoint: 0x81, Direction: IN
        1... .... = Direction: IN (1)
        .000 0001 = Endpoint value: 1
    Device: 39
    URB bus id: 2
    Device setup request: not relevant ('-')
    Data: not present ('<')
    URB sec: 1424613618
    URB usec: 164105
    URB status: Operation now in progress (-EINPROGRESS) (-115)
    URB length [bytes]: 128
    Data length [bytes]: 0
    [bInterfaceClass: CDC-Data (0x0a)]

0000  40 1b cd c1 02 88 ff ff 53 03 81 27 02 00 2d 3c   @.......S..'..-<
0010  f2 e0 e9 54 00 00 00 00 09 81 02 00 8d ff ff ff   ...T............
0020  80 00 00 00 00 00 00 00 00 00 00 00 00 00 00 00   ................
0030  00 00 00 00 00 00 00 00 04 02 00 00 00 00 00 00   ................

No.     Time           Source                Destination           Protocol Length Info
    417 1.485686000    host                  39.1                  USB      64     URB_BULK in

Frame 417: 64 bytes on wire (512 bits), 64 bytes captured (512 bits) on interface 0
    Interface id: 0
    Encapsulation type: USB packets with Linux header and padding (115)
    Arrival Time: Feb 22, 2015 16:00:18.164105000 SAST
    [Time shift for this packet: 0.000000000 seconds]
    Epoch Time: 1424613618.164105000 seconds
    [Time delta from previous captured frame: 0.000000000 seconds]
    [Time delta from previous displayed frame: 0.000000000 seconds]
    [Time since reference or first frame: 1.485686000 seconds]
    Frame Number: 417
    Frame Length: 64 bytes (512 bits)
    Capture Length: 64 bytes (512 bits)
    [Frame is marked: False]
    [Frame is ignored: False]
    [Protocols in frame: usb]
USB URB
    URB id: 0xffff8802c1cd1a80
    URB type: URB_SUBMIT ('S')
    URB transfer type: URB_BULK (0x03)
    Endpoint: 0x81, Direction: IN
        1... .... = Direction: IN (1)
        .000 0001 = Endpoint value: 1
    Device: 39
    URB bus id: 2
    Device setup request: not relevant ('-')
    Data: not present ('<')
    URB sec: 1424613618
    URB usec: 164105
    URB status: Operation now in progress (-EINPROGRESS) (-115)
    URB length [bytes]: 128
    Data length [bytes]: 0
    [bInterfaceClass: CDC-Data (0x0a)]

0000  80 1a cd c1 02 88 ff ff 53 03 81 27 02 00 2d 3c   ........S..'..-<
0010  f2 e0 e9 54 00 00 00 00 09 81 02 00 8d ff ff ff   ...T............
0020  80 00 00 00 00 00 00 00 00 00 00 00 00 00 00 00   ................
0030  00 00 00 00 00 00 00 00 04 02 00 00 00 00 00 00   ................

No.     Time           Source                Destination           Protocol Length Info
    418 1.485695000    host                  39.0                  USB      71     URB_CONTROL out

Frame 418: 71 bytes on wire (568 bits), 71 bytes captured (568 bits) on interface 0
    Interface id: 0
    Encapsulation type: USB packets with Linux header and padding (115)
    Arrival Time: Feb 22, 2015 16:00:18.164114000 SAST
    [Time shift for this packet: 0.000000000 seconds]
    Epoch Time: 1424613618.164114000 seconds
    [Time delta from previous captured frame: 0.000009000 seconds]
    [Time delta from previous displayed frame: 0.000009000 seconds]
    [Time since reference or first frame: 1.485695000 seconds]
    Frame Number: 418
    Frame Length: 71 bytes (568 bits)
    Capture Length: 71 bytes (568 bits)
    [Frame is marked: False]
    [Frame is ignored: False]
    [Protocols in frame: usb]
USB URB
    URB id: 0xffff8801a8d2ec00
    URB type: URB_SUBMIT ('S')
    URB transfer type: URB_CONTROL (0x02)
    Endpoint: 0x00, Direction: OUT
        0... .... = Direction: OUT (0)
        .000 0000 = Endpoint value: 0
    Device: 39
    URB bus id: 2
    Device setup request: relevant (0)
    Data: present (0)
    URB sec: 1424613618
    URB usec: 164114
    URB status: Operation now in progress (-EINPROGRESS) (-115)
    URB length [bytes]: 7
    Data length [bytes]: 7
    [Response in: 419]
    [bInterfaceClass: Communications and CDC Control (0x02)]
URB setup
    bmRequestType: 0x21
        0... .... = Direction: Host-to-device
        .01. .... = Type: Class (0x01)
        ...0 0001 = Recipient: Interface (0x01)
    bRequest: 32
    wValue: 0x0000
    wIndex: 0
    wLength: 7
Leftover Capture Data: 00e10000000008

0000  00 ec d2 a8 01 88 ff ff 53 02 00 27 02 00 00 00   ........S..'....
0010  f2 e0 e9 54 00 00 00 00 12 81 02 00 8d ff ff ff   ...T............
0020  07 00 00 00 07 00 00 00 21 20 00 00 00 00 07 00   ........! ......
0030  00 00 00 00 00 00 00 00 00 00 00 00 00 00 00 00   ................
0040  00 e1 00 00 00 00 08                              .......

No.     Time           Source                Destination           Protocol Length Info
    419 1.485921000    39.0                  host                  USB      64     URB_CONTROL out

Frame 419: 64 bytes on wire (512 bits), 64 bytes captured (512 bits) on interface 0
    Interface id: 0
    Encapsulation type: USB packets with Linux header and padding (115)
    Arrival Time: Feb 22, 2015 16:00:18.164340000 SAST
    [Time shift for this packet: 0.000000000 seconds]
    Epoch Time: 1424613618.164340000 seconds
    [Time delta from previous captured frame: 0.000226000 seconds]
    [Time delta from previous displayed frame: 0.000226000 seconds]
    [Time since reference or first frame: 1.485921000 seconds]
    Frame Number: 419
    Frame Length: 64 bytes (512 bits)
    Capture Length: 64 bytes (512 bits)
    [Frame is marked: False]
    [Frame is ignored: False]
    [Protocols in frame: usb]
USB URB
    URB id: 0xffff8801a8d2ec00
    URB type: URB_COMPLETE ('C')
    URB transfer type: URB_CONTROL (0x02)
    Endpoint: 0x00, Direction: OUT
        0... .... = Direction: OUT (0)
        .000 0000 = Endpoint value: 0
    Device: 39
    URB bus id: 2
    Device setup request: not relevant ('-')
    Data: not present ('>')
    URB sec: 1424613618
    URB usec: 164340
    URB status: Success (0)
    URB length [bytes]: 7
    Data length [bytes]: 0
    [Request in: 418]
    [Time from request: 0.000226000 seconds]
    [bInterfaceClass: Communications and CDC Control (0x02)]

0000  00 ec d2 a8 01 88 ff ff 43 02 00 27 02 00 2d 3e   ........C..'..->
0010  f2 e0 e9 54 00 00 00 00 f4 81 02 00 00 00 00 00   ...T............
0020  07 00 00 00 00 00 00 00 00 00 00 00 00 00 00 00   ................
0030  00 00 00 00 00 00 00 00 00 00 00 00 00 00 00 00   ................

No.     Time           Source                Destination           Protocol Length Info
    420 1.485961000    host                  39.0                  USB      64     URB_CONTROL out

Frame 420: 64 bytes on wire (512 bits), 64 bytes captured (512 bits) on interface 0
    Interface id: 0
    Encapsulation type: USB packets with Linux header and padding (115)
    Arrival Time: Feb 22, 2015 16:00:18.164380000 SAST
    [Time shift for this packet: 0.000000000 seconds]
    Epoch Time: 1424613618.164380000 seconds
    [Time delta from previous captured frame: 0.000040000 seconds]
    [Time delta from previous displayed frame: 0.000040000 seconds]
    [Time since reference or first frame: 1.485961000 seconds]
    Frame Number: 420
    Frame Length: 64 bytes (512 bits)
    Capture Length: 64 bytes (512 bits)
    [Frame is marked: False]
    [Frame is ignored: False]
    [Protocols in frame: usb]
USB URB
    URB id: 0xffff8801a8d2ec00
    URB type: URB_SUBMIT ('S')
    URB transfer type: URB_CONTROL (0x02)
    Endpoint: 0x00, Direction: OUT
        0... .... = Direction: OUT (0)
        .000 0000 = Endpoint value: 0
    Device: 39
    URB bus id: 2
    Device setup request: relevant (0)
    Data: present (0)
    URB sec: 1424613618
    URB usec: 164380
    URB status: Operation now in progress (-EINPROGRESS) (-115)
    URB length [bytes]: 0
    Data length [bytes]: 0
    [Response in: 421]
    [bInterfaceClass: Communications and CDC Control (0x02)]
URB setup
    bmRequestType: 0x21
        0... .... = Direction: Host-to-device
        .01. .... = Type: Class (0x01)
        ...0 0001 = Recipient: Interface (0x01)
    bRequest: 34
    wValue: 0x0002
    wIndex: 0
    wLength: 0

0000  00 ec d2 a8 01 88 ff ff 53 02 00 27 02 00 00 00   ........S..'....
0010  f2 e0 e9 54 00 00 00 00 1c 82 02 00 8d ff ff ff   ...T............
0020  00 00 00 00 00 00 00 00 21 22 02 00 00 00 00 00   ........!"......
0030  00 00 00 00 00 00 00 00 00 00 00 00 00 00 00 00   ................

No.     Time           Source                Destination           Protocol Length Info
    421 1.486042000    39.0                  host                  USB      64     URB_CONTROL out

Frame 421: 64 bytes on wire (512 bits), 64 bytes captured (512 bits) on interface 0
    Interface id: 0
    Encapsulation type: USB packets with Linux header and padding (115)
    Arrival Time: Feb 22, 2015 16:00:18.164461000 SAST
    [Time shift for this packet: 0.000000000 seconds]
    Epoch Time: 1424613618.164461000 seconds
    [Time delta from previous captured frame: 0.000081000 seconds]
    [Time delta from previous displayed frame: 0.000081000 seconds]
    [Time since reference or first frame: 1.486042000 seconds]
    Frame Number: 421
    Frame Length: 64 bytes (512 bits)
    Capture Length: 64 bytes (512 bits)
    [Frame is marked: False]
    [Frame is ignored: False]
    [Protocols in frame: usb]
USB URB
    URB id: 0xffff8801a8d2ec00
    URB type: URB_COMPLETE ('C')
    URB transfer type: URB_CONTROL (0x02)
    Endpoint: 0x00, Direction: OUT
        0... .... = Direction: OUT (0)
        .000 0000 = Endpoint value: 0
    Device: 39
    URB bus id: 2
    Device setup request: not relevant ('-')
    Data: not present ('>')
    URB sec: 1424613618
    URB usec: 164461
    URB status: Success (0)
    URB length [bytes]: 0
    Data length [bytes]: 0
    [Request in: 420]
    [Time from request: 0.000081000 seconds]
    [bInterfaceClass: Communications and CDC Control (0x02)]

0000  00 ec d2 a8 01 88 ff ff 43 02 00 27 02 00 2d 3e   ........C..'..->
0010  f2 e0 e9 54 00 00 00 00 6d 82 02 00 00 00 00 00   ...T....m.......
0020  00 00 00 00 00 00 00 00 00 00 00 00 00 00 00 00   ................
0030  00 00 00 00 00 00 00 00 00 00 00 00 00 00 00 00   ................

No.     Time           Source                Destination           Protocol Length Info
    426 1.586196000    host                  39.0                  USB      64     URB_CONTROL out

Frame 426: 64 bytes on wire (512 bits), 64 bytes captured (512 bits) on interface 0
    Interface id: 0
    Encapsulation type: USB packets with Linux header and padding (115)
    Arrival Time: Feb 22, 2015 16:00:18.264615000 SAST
    [Time shift for this packet: 0.000000000 seconds]
    Epoch Time: 1424613618.264615000 seconds
    [Time delta from previous captured frame: 0.008186000 seconds]
    [Time delta from previous displayed frame: 0.100154000 seconds]
    [Time since reference or first frame: 1.586196000 seconds]
    Frame Number: 426
    Frame Length: 64 bytes (512 bits)
    Capture Length: 64 bytes (512 bits)
    [Frame is marked: False]
    [Frame is ignored: False]
    [Protocols in frame: usb]
USB URB
    URB id: 0xffff8801a8d2e000
    URB type: URB_SUBMIT ('S')
    URB transfer type: URB_CONTROL (0x02)
    Endpoint: 0x00, Direction: OUT
        0... .... = Direction: OUT (0)
        .000 0000 = Endpoint value: 0
    Device: 39
    URB bus id: 2
    Device setup request: relevant (0)
    Data: present (0)
    URB sec: 1424613618
    URB usec: 264615
    URB status: Operation now in progress (-EINPROGRESS) (-115)
    URB length [bytes]: 0
    Data length [bytes]: 0
    [Response in: 427]
    [bInterfaceClass: Communications and CDC Control (0x02)]
URB setup
    bmRequestType: 0x21
        0... .... = Direction: Host-to-device
        .01. .... = Type: Class (0x01)
        ...0 0001 = Recipient: Interface (0x01)
    bRequest: 34
    wValue: 0x0003
    wIndex: 0
    wLength: 0

0000  00 e0 d2 a8 01 88 ff ff 53 02 00 27 02 00 00 00   ........S..'....
0010  f2 e0 e9 54 00 00 00 00 a7 09 04 00 8d ff ff ff   ...T............
0020  00 00 00 00 00 00 00 00 21 22 03 00 00 00 00 00   ........!"......
0030  00 00 00 00 00 00 00 00 00 00 00 00 00 00 00 00   ................

No.     Time           Source                Destination           Protocol Length Info
    427 1.586357000    39.0                  host                  USB      64     URB_CONTROL out

Frame 427: 64 bytes on wire (512 bits), 64 bytes captured (512 bits) on interface 0
    Interface id: 0
    Encapsulation type: USB packets with Linux header and padding (115)
    Arrival Time: Feb 22, 2015 16:00:18.264776000 SAST
    [Time shift for this packet: 0.000000000 seconds]
    Epoch Time: 1424613618.264776000 seconds
    [Time delta from previous captured frame: 0.000161000 seconds]
    [Time delta from previous displayed frame: 0.000161000 seconds]
    [Time since reference or first frame: 1.586357000 seconds]
    Frame Number: 427
    Frame Length: 64 bytes (512 bits)
    Capture Length: 64 bytes (512 bits)
    [Frame is marked: False]
    [Frame is ignored: False]
    [Protocols in frame: usb]
USB URB
    URB id: 0xffff8801a8d2e000
    URB type: URB_COMPLETE ('C')
    URB transfer type: URB_CONTROL (0x02)
    Endpoint: 0x00, Direction: OUT
        0... .... = Direction: OUT (0)
        .000 0000 = Endpoint value: 0
    Device: 39
    URB bus id: 2
    Device setup request: not relevant ('-')
    Data: not present ('>')
    URB sec: 1424613618
    URB usec: 264776
    URB status: Success (0)
    URB length [bytes]: 0
    Data length [bytes]: 0
    [Request in: 426]
    [Time from request: 0.000161000 seconds]
    [bInterfaceClass: Communications and CDC Control (0x02)]

0000  00 e0 d2 a8 01 88 ff ff 43 02 00 27 02 00 2d 3e   ........C..'..->
0010  f2 e0 e9 54 00 00 00 00 48 0a 04 00 00 00 00 00   ...T....H.......
0020  00 00 00 00 00 00 00 00 00 00 00 00 00 00 00 00   ................
0030  00 00 00 00 00 00 00 00 00 00 00 00 00 00 00 00   ................

No.     Time           Source                Destination           Protocol Length Info
    428 1.586452000    host                  39.1                  Ethernet 65     URB_BULK out[Malformed Packet]

Frame 428: 65 bytes on wire (520 bits), 65 bytes captured (520 bits) on interface 0
    Interface id: 0
    Encapsulation type: USB packets with Linux header and padding (115)
    Arrival Time: Feb 22, 2015 16:00:18.264871000 SAST
    [Time shift for this packet: 0.000000000 seconds]
    Epoch Time: 1424613618.264871000 seconds
    [Time delta from previous captured frame: 0.000095000 seconds]
    [Time delta from previous displayed frame: 0.000095000 seconds]
    [Time since reference or first frame: 1.586452000 seconds]
    Frame Number: 428
    Frame Length: 65 bytes (520 bits)
    Capture Length: 65 bytes (520 bits)
    [Frame is marked: False]
    [Frame is ignored: False]
    [Protocols in frame: usb:eth]
USB URB
    URB id: 0xffff8802c1cd1cc0
    URB type: URB_SUBMIT ('S')
    URB transfer type: URB_BULK (0x03)
    Endpoint: 0x01, Direction: OUT
        0... .... = Direction: OUT (0)
        .000 0001 = Endpoint value: 1
    Device: 39
    URB bus id: 2
    Device setup request: not relevant ('-')
    Data: present (0)
    URB sec: 1424613618
    URB usec: 264871
    URB status: Operation now in progress (-EINPROGRESS) (-115)
    URB length [bytes]: 1
    Data length [bytes]: 1
    [Response in: 429]
    [bInterfaceClass: CDC-Data (0x0a)]
[Malformed Packet: Ethernet]
    [Expert Info (Error/Malformed): Malformed Packet (Exception occurred)]
        [Message: Malformed Packet (Exception occurred)]
        [Severity level: Error]
        [Group: Malformed]

0000  c0 1c cd c1 02 88 ff ff 53 03 01 27 02 00 2d 00   ........S..'..-.
0010  f2 e0 e9 54 00 00 00 00 a7 0a 04 00 8d ff ff ff   ...T............
0020  01 00 00 00 01 00 00 00 00 00 00 00 00 00 00 00   ................
0030  00 00 00 00 00 00 00 00 04 00 00 00 00 00 00 00   ................
0040  41                                                A

No.     Time           Source                Destination           Protocol Length Info
    429 1.586583000    39.1                  host                  USB      64     URB_BULK out

Frame 429: 64 bytes on wire (512 bits), 64 bytes captured (512 bits) on interface 0
    Interface id: 0
    Encapsulation type: USB packets with Linux header and padding (115)
    Arrival Time: Feb 22, 2015 16:00:18.265002000 SAST
    [Time shift for this packet: 0.000000000 seconds]
    Epoch Time: 1424613618.265002000 seconds
    [Time delta from previous captured frame: 0.000131000 seconds]
    [Time delta from previous displayed frame: 0.000131000 seconds]
    [Time since reference or first frame: 1.586583000 seconds]
    Frame Number: 429
    Frame Length: 64 bytes (512 bits)
    Capture Length: 64 bytes (512 bits)
    [Frame is marked: False]
    [Frame is ignored: False]
    [Protocols in frame: usb]
USB URB
    URB id: 0xffff8802c1cd1cc0
    URB type: URB_COMPLETE ('C')
    URB transfer type: URB_BULK (0x03)
    Endpoint: 0x01, Direction: OUT
        0... .... = Direction: OUT (0)
        .000 0001 = Endpoint value: 1
    Device: 39
    URB bus id: 2
    Device setup request: not relevant ('-')
    Data: not present ('>')
    URB sec: 1424613618
    URB usec: 265002
    URB status: Success (0)
    URB length [bytes]: 1
    Data length [bytes]: 0
    [Request in: 428]
    [Time from request: 0.000131000 seconds]
    [bInterfaceClass: CDC-Data (0x0a)]

0000  c0 1c cd c1 02 88 ff ff 43 03 01 27 02 00 2d 3e   ........C..'..->
0010  f2 e0 e9 54 00 00 00 00 2a 0b 04 00 00 00 00 00   ...T....*.......
0020  01 00 00 00 00 00 00 00 00 00 00 00 00 00 00 00   ................
0030  00 00 00 00 00 00 00 00 04 00 00 00 00 00 00 00   ................

No.     Time           Source                Destination           Protocol Length Info
    434 1.686612000    host                  39.1                  Ethernet 65     URB_BULK out[Malformed Packet]

Frame 434: 65 bytes on wire (520 bits), 65 bytes captured (520 bits) on interface 0
    Interface id: 0
    Encapsulation type: USB packets with Linux header and padding (115)
    Arrival Time: Feb 22, 2015 16:00:18.365031000 SAST
    [Time shift for this packet: 0.000000000 seconds]
    Epoch Time: 1424613618.365031000 seconds
    [Time delta from previous captured frame: 0.076605000 seconds]
    [Time delta from previous displayed frame: 0.100029000 seconds]
    [Time since reference or first frame: 1.686612000 seconds]
    Frame Number: 434
    Frame Length: 65 bytes (520 bits)
    Capture Length: 65 bytes (520 bits)
    [Frame is marked: False]
    [Frame is ignored: False]
    [Protocols in frame: usb:eth]
USB URB
    URB id: 0xffff8802c1cd1cc0
    URB type: URB_SUBMIT ('S')
    URB transfer type: URB_BULK (0x03)
    Endpoint: 0x01, Direction: OUT
        0... .... = Direction: OUT (0)
        .000 0001 = Endpoint value: 1
    Device: 39
    URB bus id: 2
    Device setup request: not relevant ('-')
    Data: present (0)
    URB sec: 1424613618
    URB usec: 365031
    URB status: Operation now in progress (-EINPROGRESS) (-115)
    URB length [bytes]: 1
    Data length [bytes]: 1
    [bInterfaceClass: CDC-Data (0x0a)]
[Malformed Packet: Ethernet]
    [Expert Info (Error/Malformed): Malformed Packet (Exception occurred)]
        [Message: Malformed Packet (Exception occurred)]
        [Severity level: Error]
        [Group: Malformed]

0000  c0 1c cd c1 02 88 ff ff 53 03 01 27 02 00 2d 00   ........S..'..-.
0010  f2 e0 e9 54 00 00 00 00 e7 91 05 00 8d ff ff ff   ...T............
0020  01 00 00 00 01 00 00 00 00 00 00 00 00 00 00 00   ................
0030  00 00 00 00 00 00 00 00 04 00 00 00 00 00 00 00   ................
0040  54                                                T

No.     Time           Source                Destination           Protocol Length Info
    435 1.786768000    host                  39.1                  Ethernet 65     URB_BULK out[Malformed Packet]

Frame 435: 65 bytes on wire (520 bits), 65 bytes captured (520 bits) on interface 0
    Interface id: 0
    Encapsulation type: USB packets with Linux header and padding (115)
    Arrival Time: Feb 22, 2015 16:00:18.465187000 SAST
    [Time shift for this packet: 0.000000000 seconds]
    Epoch Time: 1424613618.465187000 seconds
    [Time delta from previous captured frame: 0.100156000 seconds]
    [Time delta from previous displayed frame: 0.100156000 seconds]
    [Time since reference or first frame: 1.786768000 seconds]
    Frame Number: 435
    Frame Length: 65 bytes (520 bits)
    Capture Length: 65 bytes (520 bits)
    [Frame is marked: False]
    [Frame is ignored: False]
    [Protocols in frame: usb:eth]
USB URB
    URB id: 0xffff8802c1cd1540
    URB type: URB_SUBMIT ('S')
    URB transfer type: URB_BULK (0x03)
    Endpoint: 0x01, Direction: OUT
        0... .... = Direction: OUT (0)
        .000 0001 = Endpoint value: 1
    Device: 39
    URB bus id: 2
    Device setup request: not relevant ('-')
    Data: present (0)
    URB sec: 1424613618
    URB usec: 465187
    URB status: Operation now in progress (-EINPROGRESS) (-115)
    URB length [bytes]: 1
    Data length [bytes]: 1
    [Response in: 677]
    [bInterfaceClass: CDC-Data (0x0a)]
[Malformed Packet: Ethernet]
    [Expert Info (Error/Malformed): Malformed Packet (Exception occurred)]
        [Message: Malformed Packet (Exception occurred)]
        [Severity level: Error]
        [Group: Malformed]

0000  40 15 cd c1 02 88 ff ff 53 03 01 27 02 00 2d 00   @.......S..'..-.
0010  f2 e0 e9 54 00 00 00 00 23 19 07 00 8d ff ff ff   ...T....#.......
0020  01 00 00 00 01 00 00 00 00 00 00 00 00 00 00 00   ................
0030  00 00 00 00 00 00 00 00 04 00 00 00 00 00 00 00   ................
0040  0d                                                .

No.     Time           Source                Destination           Protocol Length Info
    676 4.087564000    39.1                  host                  USB      64     URB_BULK out

Frame 676: 64 bytes on wire (512 bits), 64 bytes captured (512 bits) on interface 0
    Interface id: 0
    Encapsulation type: USB packets with Linux header and padding (115)
    Arrival Time: Feb 22, 2015 16:00:20.765983000 SAST
    [Time shift for this packet: 0.000000000 seconds]
    Epoch Time: 1424613620.765983000 seconds
    [Time delta from previous captured frame: 0.037600000 seconds]
    [Time delta from previous displayed frame: 2.300796000 seconds]
    [Time since reference or first frame: 4.087564000 seconds]
    Frame Number: 676
    Frame Length: 64 bytes (512 bits)
    Capture Length: 64 bytes (512 bits)
    [Frame is marked: False]
    [Frame is ignored: False]
    [Protocols in frame: usb]
USB URB
    URB id: 0xffff8802c1cd1cc0
    URB type: URB_COMPLETE ('C')
    URB transfer type: URB_BULK (0x03)
    Endpoint: 0x01, Direction: OUT
        0... .... = Direction: OUT (0)
        .000 0001 = Endpoint value: 1
    Device: 39
    URB bus id: 2
    Device setup request: not relevant ('-')
    Data: not present ('>')
    URB sec: 1424613620
    URB usec: 765983
    URB status: Success (0)
    URB length [bytes]: 1
    Data length [bytes]: 0
    [Request in: 435]
    [Time from request: 2.300796000 seconds]
    [bInterfaceClass: CDC-Data (0x0a)]

0000  c0 1c cd c1 02 88 ff ff 43 03 01 27 02 00 2d 3e   ........C..'..->
0010  f4 e0 e9 54 00 00 00 00 1f b0 0b 00 00 00 00 00   ...T............
0020  01 00 00 00 00 00 00 00 00 00 00 00 00 00 00 00   ................
0030  00 00 00 00 00 00 00 00 04 00 00 00 00 00 00 00   ................

No.     Time           Source                Destination           Protocol Length Info
    677 4.093808000    39.1                  host                  USB      64     URB_BULK out

